{
  "contractName": "HeirloomEscrow",
  "abi": [
    {
      "inputs": [
        {
          "internalType": "address",
          "name": "heirloomToken",
          "type": "address"
        },
        {
          "internalType": "address",
          "name": "operator",
          "type": "address"
        }
      ],
      "stateMutability": "nonpayable",
      "type": "constructor"
    },
    {
      "anonymous": false,
      "inputs": [
        {
          "indexed": true,
          "internalType": "address",
          "name": "payee",
          "type": "address"
        },
        {
          "indexed": true,
          "internalType": "uint256",
          "name": "weiAmount",
          "type": "uint256"
        }
      ],
      "name": "Deposited",
      "type": "event"
    },
    {
      "anonymous": false,
      "inputs": [
        {
          "indexed": true,
          "internalType": "bytes32",
          "name": "role",
          "type": "bytes32"
        },
        {
          "indexed": true,
          "internalType": "bytes32",
          "name": "previousAdminRole",
          "type": "bytes32"
        },
        {
          "indexed": true,
          "internalType": "bytes32",
          "name": "newAdminRole",
          "type": "bytes32"
        }
      ],
      "name": "RoleAdminChanged",
      "type": "event"
    },
    {
      "anonymous": false,
      "inputs": [
        {
          "indexed": true,
          "internalType": "bytes32",
          "name": "role",
          "type": "bytes32"
        },
        {
          "indexed": true,
          "internalType": "address",
          "name": "account",
          "type": "address"
        },
        {
          "indexed": true,
          "internalType": "address",
          "name": "sender",
          "type": "address"
        }
      ],
      "name": "RoleGranted",
      "type": "event"
    },
    {
      "anonymous": false,
      "inputs": [
        {
          "indexed": true,
          "internalType": "bytes32",
          "name": "role",
          "type": "bytes32"
        },
        {
          "indexed": true,
          "internalType": "address",
          "name": "account",
          "type": "address"
        },
        {
          "indexed": true,
          "internalType": "address",
          "name": "sender",
          "type": "address"
        }
      ],
      "name": "RoleRevoked",
      "type": "event"
    },
    {
      "anonymous": false,
      "inputs": [
        {
          "indexed": true,
          "internalType": "address",
          "name": "payee",
          "type": "address"
        },
        {
          "indexed": true,
          "internalType": "uint256",
          "name": "weiAmount",
          "type": "uint256"
        }
      ],
      "name": "Withdrawn",
      "type": "event"
    },
    {
      "inputs": [],
      "name": "DEFAULT_ADMIN_ROLE",
      "outputs": [
        {
          "internalType": "bytes32",
          "name": "",
          "type": "bytes32"
        }
      ],
      "stateMutability": "view",
      "type": "function",
      "constant": true
    },
    {
      "inputs": [
        {
          "internalType": "bytes32",
          "name": "role",
          "type": "bytes32"
        }
      ],
      "name": "getRoleAdmin",
      "outputs": [
        {
          "internalType": "bytes32",
          "name": "",
          "type": "bytes32"
        }
      ],
      "stateMutability": "view",
      "type": "function",
      "constant": true
    },
    {
      "inputs": [
        {
          "internalType": "bytes32",
          "name": "role",
          "type": "bytes32"
        },
        {
          "internalType": "address",
          "name": "account",
          "type": "address"
        }
      ],
      "name": "grantRole",
      "outputs": [],
      "stateMutability": "nonpayable",
      "type": "function"
    },
    {
      "inputs": [
        {
          "internalType": "bytes32",
          "name": "role",
          "type": "bytes32"
        },
        {
          "internalType": "address",
          "name": "account",
          "type": "address"
        }
      ],
      "name": "hasRole",
      "outputs": [
        {
          "internalType": "bool",
          "name": "",
          "type": "bool"
        }
      ],
      "stateMutability": "view",
      "type": "function",
      "constant": true
    },
    {
      "inputs": [
        {
          "internalType": "bytes32",
          "name": "role",
          "type": "bytes32"
        },
        {
          "internalType": "address",
          "name": "account",
          "type": "address"
        }
      ],
      "name": "renounceRole",
      "outputs": [],
      "stateMutability": "nonpayable",
      "type": "function"
    },
    {
      "inputs": [
        {
          "internalType": "bytes32",
          "name": "role",
          "type": "bytes32"
        },
        {
          "internalType": "address",
          "name": "account",
          "type": "address"
        }
      ],
      "name": "revokeRole",
      "outputs": [],
      "stateMutability": "nonpayable",
      "type": "function"
    },
    {
      "inputs": [
        {
          "internalType": "bytes4",
          "name": "interfaceId",
          "type": "bytes4"
        }
      ],
      "name": "supportsInterface",
      "outputs": [
        {
          "internalType": "bool",
          "name": "",
          "type": "bool"
        }
      ],
      "stateMutability": "view",
      "type": "function",
      "constant": true
    },
    {
      "inputs": [
        {
          "internalType": "address",
          "name": "payee",
          "type": "address"
        }
      ],
      "name": "ERC20DepositsOf",
      "outputs": [
        {
          "internalType": "uint256",
          "name": "",
          "type": "uint256"
        }
      ],
      "stateMutability": "view",
      "type": "function",
      "constant": true
    },
    {
      "inputs": [
        {
          "internalType": "address",
          "name": "payee",
          "type": "address"
        }
      ],
      "name": "nativeDepositsOf",
      "outputs": [
        {
          "internalType": "uint256",
          "name": "",
          "type": "uint256"
        }
      ],
      "stateMutability": "view",
      "type": "function",
      "constant": true
    },
    {
      "inputs": [],
      "name": "withdrawERC20",
      "outputs": [],
      "stateMutability": "nonpayable",
      "type": "function"
    },
    {
      "inputs": [
        {
          "internalType": "address payable",
          "name": "payee",
          "type": "address"
        }
      ],
      "name": "withdrawNative",
      "outputs": [],
      "stateMutability": "nonpayable",
      "type": "function"
    },
    {
      "inputs": [
        {
          "internalType": "address",
          "name": "payee",
          "type": "address"
        },
        {
          "internalType": "uint256",
          "name": "amount",
          "type": "uint256"
        }
      ],
      "name": "depositERC20",
      "outputs": [],
      "stateMutability": "nonpayable",
      "type": "function"
    },
    {
      "inputs": [
        {
          "internalType": "address",
          "name": "payee",
          "type": "address"
        }
      ],
      "name": "depositNative",
      "outputs": [],
      "stateMutability": "payable",
      "type": "function",
      "payable": true
    }
  ],
  "bytecode": "0x60806040523480156200001157600080fd5b5060405162001239380380620012398339810160408190526200003491620001df565b6200004f6000805160206200121983398151915233620000d6565b6200006a600080516020620012198339815191528062000177565b62000085600080516020620011f983398151915282620000d6565b620000af600080516020620011f98339815191526000805160206200121983398151915262000177565b50600380546001600160a01b0319166001600160a01b039290921691909117905562000217565b6000828152602081815260408083206001600160a01b038516845290915290205460ff1662000173576000828152602081815260408083206001600160a01b03851684529091529020805460ff19166001179055620001323390565b6001600160a01b0316816001600160a01b0316837f2f8788117e7eff1d82e926ec794901d17c78024a50270940304540a733656f0d60405160405180910390a45b5050565b600082815260208190526040808220600101805490849055905190918391839186917fbd79b86ffe0ab8e8776151514217cd7cacd52c909f66475c3af44e129f0b00ff9190a4505050565b80516001600160a01b0381168114620001da57600080fd5b919050565b60008060408385031215620001f357600080fd5b620001fe83620001c2565b91506200020e60208401620001c2565b90509250929050565b610fd280620002276000396000f3fe6080604052600436106100c25760003560e01c806336568abe1161007f57806391d148541161005957806391d148541461023057806397feb92614610250578063a217fddf14610270578063d547741f1461028557600080fd5b806336568abe146101a45780634f3068f3146101c4578063845137bb146101fa57600080fd5b806301ffc9a7146100c7578063248a9ca3146100fc5780632ed6d5e81461013a5780632f2ff15d146101515780632f622e6b1461017157806333bb7f9114610191575b600080fd5b3480156100d357600080fd5b506100e76100e2366004610cdd565b6102a5565b60405190151581526020015b60405180910390f35b34801561010857600080fd5b5061012c610117366004610d07565b60009081526020819052604090206001015490565b6040519081526020016100f3565b34801561014657600080fd5b5061014f6102dc565b005b34801561015d57600080fd5b5061014f61016c366004610d38565b61036e565b34801561017d57600080fd5b5061014f61018c366004610d68565b610399565b61014f61019f366004610d68565b61043a565b3480156101b057600080fd5b5061014f6101bf366004610d38565b6104cf565b3480156101d057600080fd5b5061012c6101df366004610d68565b6001600160a01b031660009081526001602052604090205490565b34801561020657600080fd5b5061012c610215366004610d68565b6001600160a01b031660009081526002602052604090205490565b34801561023c57600080fd5b506100e761024b366004610d38565b61054d565b34801561025c57600080fd5b5061014f61026b366004610d85565b610576565b34801561027c57600080fd5b5061012c600081565b34801561029157600080fd5b5061014f6102a0366004610d38565b610609565b60006001600160e01b03198216637965db0b60e01b14806102d657506301ffc9a760e01b6001600160e01b03198316145b92915050565b336000908152600160205260409020546103115760405162461bcd60e51b815260040161030890610db1565b60405180910390fd5b3360008181526001602052604081208054919055600354909161033e916001600160a01b0316908361062f565b604051819033907f7084f5476618d8e60b11ef0d7d3f06914655adb8793e28ff7f018d4c76d505d590600090a350565b60008281526020819052604090206001015461038a8133610681565b61039483836106e5565b505050565b6001600160a01b0381166000908152600160205260409020546103ce5760405162461bcd60e51b815260040161030890610db1565b6001600160a01b0381166000818152600160209081526040808320546002909252822091909155906104009082610769565b60405181906001600160a01b038416907f7084f5476618d8e60b11ef0d7d3f06914655adb8793e28ff7f018d4c76d505d590600090a35050565b7f625c25fb0d3ad45caca3eaeb9b4afeb6dcdcb685ea43856c08f3c1c111e38a566104658133610681565b6001600160a01b03821660009081526002602052604081208054349283929161048f908490610e0c565b909155505060405181906001600160a01b038516907f2da466a7b24304f47e87fa2e1e5a81b9831ce54fec19055ce277ca2f39ba42c490600090a3505050565b6001600160a01b038116331461053f5760405162461bcd60e51b815260206004820152602f60248201527f416363657373436f6e74726f6c3a2063616e206f6e6c792072656e6f756e636560448201526e103937b632b9903337b91039b2b63360891b6064820152608401610308565b6105498282610882565b5050565b6000918252602082815260408084206001600160a01b0393909316845291905290205460ff1690565b7f625c25fb0d3ad45caca3eaeb9b4afeb6dcdcb685ea43856c08f3c1c111e38a566105a18133610681565b6001600160a01b038316600090815260016020526040812080548492906105c9908490610e0c565b909155505060405182906001600160a01b038516907f2da466a7b24304f47e87fa2e1e5a81b9831ce54fec19055ce277ca2f39ba42c490600090a3505050565b6000828152602081905260409020600101546106258133610681565b6103948383610882565b604080516001600160a01b038416602482015260448082018490528251808303909101815260649091019091526020810180516001600160e01b031663a9059cbb60e01b1790526103949084906108e7565b61068b828261054d565b610549576106a3816001600160a01b031660146109b9565b6106ae8360206109b9565b6040516020016106bf929190610e54565b60408051601f198184030181529082905262461bcd60e51b825261030891600401610ec9565b6106ef828261054d565b610549576000828152602081815260408083206001600160a01b03851684529091529020805460ff191660011790556107253390565b6001600160a01b0316816001600160a01b0316837f2f8788117e7eff1d82e926ec794901d17c78024a50270940304540a733656f0d60405160405180910390a45050565b804710156107b95760405162461bcd60e51b815260206004820152601d60248201527f416464726573733a20696e73756666696369656e742062616c616e63650000006044820152606401610308565b6000826001600160a01b03168260405160006040518083038185875af1925050503d8060008114610806576040519150601f19603f3d011682016040523d82523d6000602084013e61080b565b606091505b50509050806103945760405162461bcd60e51b815260206004820152603a60248201527f416464726573733a20756e61626c6520746f2073656e642076616c75652c207260448201527f6563697069656e74206d617920686176652072657665727465640000000000006064820152608401610308565b61088c828261054d565b15610549576000828152602081815260408083206001600160a01b0385168085529252808320805460ff1916905551339285917ff6391f5c32d9c69d2a47ea670b442974b53935d1edc7fd64eb21e047a839171b9190a45050565b600061093c826040518060400160405280602081526020017f5361666545524332303a206c6f772d6c6576656c2063616c6c206661696c6564815250856001600160a01b0316610b5c9092919063ffffffff16565b805190915015610394578080602001905181019061095a9190610efc565b6103945760405162461bcd60e51b815260206004820152602a60248201527f5361666545524332303a204552433230206f7065726174696f6e20646964206e6044820152691bdd081cdd58d8d9595960b21b6064820152608401610308565b606060006109c8836002610f1e565b6109d3906002610e0c565b67ffffffffffffffff8111156109eb576109eb610f3d565b6040519080825280601f01601f191660200182016040528015610a15576020820181803683370190505b509050600360fc1b81600081518110610a3057610a30610f53565b60200101906001600160f81b031916908160001a905350600f60fb1b81600181518110610a5f57610a5f610f53565b60200101906001600160f81b031916908160001a9053506000610a83846002610f1e565b610a8e906001610e0c565b90505b6001811115610b06576f181899199a1a9b1b9c1cb0b131b232b360811b85600f1660108110610ac257610ac2610f53565b1a60f81b828281518110610ad857610ad8610f53565b60200101906001600160f81b031916908160001a90535060049490941c93610aff81610f69565b9050610a91565b508315610b555760405162461bcd60e51b815260206004820181905260248201527f537472696e67733a20686578206c656e67746820696e73756666696369656e746044820152606401610308565b9392505050565b6060610b6b8484600085610b73565b949350505050565b606082471015610bd45760405162461bcd60e51b815260206004820152602660248201527f416464726573733a20696e73756666696369656e742062616c616e636520666f6044820152651c8818d85b1b60d21b6064820152608401610308565b6001600160a01b0385163b610c2b5760405162461bcd60e51b815260206004820152601d60248201527f416464726573733a2063616c6c20746f206e6f6e2d636f6e74726163740000006044820152606401610308565b600080866001600160a01b03168587604051610c479190610f80565b60006040518083038185875af1925050503d8060008114610c84576040519150601f19603f3d011682016040523d82523d6000602084013e610c89565b606091505b5091509150610c99828286610ca4565b979650505050505050565b60608315610cb3575081610b55565b825115610cc35782518084602001fd5b8160405162461bcd60e51b81526004016103089190610ec9565b600060208284031215610cef57600080fd5b81356001600160e01b031981168114610b5557600080fd5b600060208284031215610d1957600080fd5b5035919050565b6001600160a01b0381168114610d3557600080fd5b50565b60008060408385031215610d4b57600080fd5b823591506020830135610d5d81610d20565b809150509250929050565b600060208284031215610d7a57600080fd5b8135610b5581610d20565b60008060408385031215610d9857600080fd5b8235610da381610d20565b946020939093013593505050565b60208082526025908201527f486569726c6f6f6d20457363726f773a20696e73756666696369656e742062616040820152646c616e636560d81b606082015260800190565b634e487b7160e01b600052601160045260246000fd5b60008219821115610e1f57610e1f610df6565b500190565b60005b83811015610e3f578181015183820152602001610e27565b83811115610e4e576000848401525b50505050565b7f416363657373436f6e74726f6c3a206163636f756e7420000000000000000000815260008351610e8c816017850160208801610e24565b7001034b99036b4b9b9b4b733903937b6329607d1b6017918401918201528351610ebd816028840160208801610e24565b01602801949350505050565b6020815260008251806020840152610ee8816040850160208701610e24565b601f01601f19169190910160400192915050565b600060208284031215610f0e57600080fd5b81518015158114610b5557600080fd5b6000816000190483118215151615610f3857610f38610df6565b500290565b634e487b7160e01b600052604160045260246000fd5b634e487b7160e01b600052603260045260246000fd5b600081610f7857610f78610df6565b506000190190565b60008251610f92818460208701610e24565b919091019291505056fea26469706673582212205f002061293214a196831cfc381a4eefd40da0d59ef3ad09cd836d6e3888c79164736f6c634300080d0033625c25fb0d3ad45caca3eaeb9b4afeb6dcdcb685ea43856c08f3c1c111e38a56fddb143be89620896ce3745ceb136fd672c98dea954adb8724dcfae9dc08796d",
  "immutableReferences": {},
  "source": "// SPDX-License-Identifier: MIT\r\npragma solidity ^0.8.4;\r\n\r\nimport '@openzeppelin/contracts/access/AccessControl.sol';\r\nimport \"@openzeppelin/contracts/utils/Context.sol\";\r\nimport \"@openzeppelin/contracts/utils/Address.sol\";\r\nimport \"@openzeppelin/contracts/token/ERC20/IERC20.sol\";\r\nimport \"@openzeppelin/contracts/token/ERC20/utils/SafeERC20.sol\";\r\nimport './Constants.sol';\r\n\r\n/**\r\n* @title Heirloom Marketplace Escrow \r\n* @dev Contract for the heirloom dao marketplace that handles pull payments to license providers.\r\n*/\r\n\r\ncontract HeirloomEscrow is Context, AccessControl, Constants {\r\n    using SafeERC20 for IERC20;\r\n    using Address for address payable;\r\n    \r\n    event Deposited(address indexed payee, uint256 indexed weiAmount); \r\n    event Withdrawn(address indexed payee, uint256 indexed weiAmount); \r\n    mapping(address => uint256) private _erc20Deposits;\r\n    mapping(address => uint256) private _nativeDeposits;\r\n    \r\n    IERC20 private _hiloToken;\r\n    \r\n    constructor(address heirloomToken, address operator){\r\n        _grantRole(ADMIN_ROLE, _msgSender());\r\n        _setRoleAdmin(ADMIN_ROLE, ADMIN_ROLE);\r\n        _grantRole(ESCROW_ROLE, operator);\r\n        _setRoleAdmin(ESCROW_ROLE, ADMIN_ROLE);\r\n        _hiloToken = IERC20(heirloomToken);\r\n    }\r\n    \r\n    function ERC20DepositsOf(address payee) public view returns (uint256) {\r\n        return _erc20Deposits[payee];\r\n    } \r\n\r\n    function nativeDepositsOf(address payee) public view returns (uint256) {\r\n        return _nativeDeposits[payee];\r\n    } \r\n\r\n    function withdrawERC20() public {\r\n        require(_erc20Deposits[_msgSender()] > 0, \"Heirloom Escrow: insufficient balance\");\r\n        uint256 amount = _erc20Deposits[_msgSender()];\r\n        _erc20Deposits[_msgSender()] = 0;\r\n        _hiloToken.safeTransfer(_msgSender(), amount);\r\n        emit Withdrawn(_msgSender(), amount); \r\n    }\r\n\r\n    function withdrawNative(address payable payee) public {\r\n        require(_erc20Deposits[payee] > 0, \"Heirloom Escrow: insufficient balance\");\r\n        uint256 amount = _erc20Deposits[payee];\r\n        _nativeDeposits[payee] = 0;\r\n        payee.sendValue(amount);\r\n        emit Withdrawn(payee, amount);\r\n    }\r\n\r\n    function depositERC20(address payee, uint256 amount) external onlyRole(ESCROW_ROLE){\r\n        _erc20Deposits[payee] += amount;\r\n        emit Deposited(payee, amount); \r\n    }\r\n\r\n    function depositNative(address payee) external payable onlyRole(ESCROW_ROLE){\r\n        uint256 amount = msg.value;\r\n        _nativeDeposits[payee] += amount;\r\n        emit Deposited(payee, amount); \r\n    }\r\n}",
  "sourcePath": "D:\\work\\heirloom\\src\\contracts\\contracts\\utils\\HeirloomEscrow.sol",
  "compiler": {
    "name": "solc",
    "version": "0.8.13+commit.abaa5c0e.Emscripten.clang"
  },
  "schemaVersion": "3.4.7",
  "updatedAt": "2022-04-17T09:59:35.278Z",
  "networkType": "ethereum",
  "devdoc": {
    "details": "Contract for the heirloom dao marketplace that handles pull payments to license providers.",
    "kind": "dev",
    "methods": {
      "getRoleAdmin(bytes32)": {
        "details": "Returns the admin role that controls `role`. See {grantRole} and {revokeRole}. To change a role's admin, use {_setRoleAdmin}."
      },
      "grantRole(bytes32,address)": {
        "details": "Grants `role` to `account`. If `account` had not been already granted `role`, emits a {RoleGranted} event. Requirements: - the caller must have ``role``'s admin role."
      },
      "hasRole(bytes32,address)": {
        "details": "Returns `true` if `account` has been granted `role`."
      },
      "renounceRole(bytes32,address)": {
        "details": "Revokes `role` from the calling account. Roles are often managed via {grantRole} and {revokeRole}: this function's purpose is to provide a mechanism for accounts to lose their privileges if they are compromised (such as when a trusted device is misplaced). If the calling account had been revoked `role`, emits a {RoleRevoked} event. Requirements: - the caller must be `account`."
      },
      "revokeRole(bytes32,address)": {
        "details": "Revokes `role` from `account`. If `account` had been granted `role`, emits a {RoleRevoked} event. Requirements: - the caller must have ``role``'s admin role."
      },
      "supportsInterface(bytes4)": {
        "details": "See {IERC165-supportsInterface}."
      }
    },
    "title": "Heirloom Marketplace Escrow ",
    "version": 1
  },
  "userdoc": {
    "kind": "user",
    "methods": {},
    "version": 1
  }
}