{
  "contractName": "HeirloomToken",
  "abi": [
    {
      "inputs": [
        {
          "internalType": "address",
          "name": "treasury",
          "type": "address"
        },
        {
          "internalType": "uint256",
          "name": "supply",
          "type": "uint256"
        }
      ],
      "stateMutability": "nonpayable",
      "type": "constructor"
    },
    {
      "anonymous": false,
      "inputs": [
        {
          "indexed": true,
          "internalType": "address",
          "name": "owner",
          "type": "address"
        },
        {
          "indexed": true,
          "internalType": "address",
          "name": "spender",
          "type": "address"
        },
        {
          "indexed": false,
          "internalType": "uint256",
          "name": "value",
          "type": "uint256"
        }
      ],
      "name": "Approval",
      "type": "event"
    },
    {
      "anonymous": false,
      "inputs": [
        {
          "indexed": false,
          "internalType": "address",
          "name": "account",
          "type": "address"
        }
      ],
      "name": "Paused",
      "type": "event"
    },
    {
      "anonymous": false,
      "inputs": [
        {
          "indexed": true,
          "internalType": "bytes32",
          "name": "role",
          "type": "bytes32"
        },
        {
          "indexed": true,
          "internalType": "bytes32",
          "name": "previousAdminRole",
          "type": "bytes32"
        },
        {
          "indexed": true,
          "internalType": "bytes32",
          "name": "newAdminRole",
          "type": "bytes32"
        }
      ],
      "name": "RoleAdminChanged",
      "type": "event"
    },
    {
      "anonymous": false,
      "inputs": [
        {
          "indexed": true,
          "internalType": "bytes32",
          "name": "role",
          "type": "bytes32"
        },
        {
          "indexed": true,
          "internalType": "address",
          "name": "account",
          "type": "address"
        },
        {
          "indexed": true,
          "internalType": "address",
          "name": "sender",
          "type": "address"
        }
      ],
      "name": "RoleGranted",
      "type": "event"
    },
    {
      "anonymous": false,
      "inputs": [
        {
          "indexed": true,
          "internalType": "bytes32",
          "name": "role",
          "type": "bytes32"
        },
        {
          "indexed": true,
          "internalType": "address",
          "name": "account",
          "type": "address"
        },
        {
          "indexed": true,
          "internalType": "address",
          "name": "sender",
          "type": "address"
        }
      ],
      "name": "RoleRevoked",
      "type": "event"
    },
    {
      "anonymous": false,
      "inputs": [
        {
          "indexed": false,
          "internalType": "uint256",
          "name": "id",
          "type": "uint256"
        }
      ],
      "name": "Snapshot",
      "type": "event"
    },
    {
      "anonymous": false,
      "inputs": [
        {
          "indexed": true,
          "internalType": "address",
          "name": "from",
          "type": "address"
        },
        {
          "indexed": true,
          "internalType": "address",
          "name": "to",
          "type": "address"
        },
        {
          "indexed": false,
          "internalType": "uint256",
          "name": "value",
          "type": "uint256"
        }
      ],
      "name": "Transfer",
      "type": "event"
    },
    {
      "anonymous": false,
      "inputs": [
        {
          "indexed": false,
          "internalType": "address",
          "name": "account",
          "type": "address"
        }
      ],
      "name": "Unpaused",
      "type": "event"
    },
    {
      "inputs": [],
      "name": "DEFAULT_ADMIN_ROLE",
      "outputs": [
        {
          "internalType": "bytes32",
          "name": "",
          "type": "bytes32"
        }
      ],
      "stateMutability": "view",
      "type": "function",
      "constant": true
    },
    {
      "inputs": [
        {
          "internalType": "address",
          "name": "owner",
          "type": "address"
        },
        {
          "internalType": "address",
          "name": "spender",
          "type": "address"
        }
      ],
      "name": "allowance",
      "outputs": [
        {
          "internalType": "uint256",
          "name": "",
          "type": "uint256"
        }
      ],
      "stateMutability": "view",
      "type": "function",
      "constant": true
    },
    {
      "inputs": [
        {
          "internalType": "address",
          "name": "spender",
          "type": "address"
        },
        {
          "internalType": "uint256",
          "name": "amount",
          "type": "uint256"
        }
      ],
      "name": "approve",
      "outputs": [
        {
          "internalType": "bool",
          "name": "",
          "type": "bool"
        }
      ],
      "stateMutability": "nonpayable",
      "type": "function"
    },
    {
      "inputs": [
        {
          "internalType": "address",
          "name": "account",
          "type": "address"
        }
      ],
      "name": "balanceOf",
      "outputs": [
        {
          "internalType": "uint256",
          "name": "",
          "type": "uint256"
        }
      ],
      "stateMutability": "view",
      "type": "function",
      "constant": true
    },
    {
      "inputs": [
        {
          "internalType": "address",
          "name": "account",
          "type": "address"
        },
        {
          "internalType": "uint256",
          "name": "snapshotId",
          "type": "uint256"
        }
      ],
      "name": "balanceOfAt",
      "outputs": [
        {
          "internalType": "uint256",
          "name": "",
          "type": "uint256"
        }
      ],
      "stateMutability": "view",
      "type": "function",
      "constant": true
    },
    {
      "inputs": [
        {
          "internalType": "uint256",
          "name": "amount",
          "type": "uint256"
        }
      ],
      "name": "burn",
      "outputs": [],
      "stateMutability": "nonpayable",
      "type": "function"
    },
    {
      "inputs": [
        {
          "internalType": "address",
          "name": "account",
          "type": "address"
        },
        {
          "internalType": "uint256",
          "name": "amount",
          "type": "uint256"
        }
      ],
      "name": "burnFrom",
      "outputs": [],
      "stateMutability": "nonpayable",
      "type": "function"
    },
    {
      "inputs": [],
      "name": "decimals",
      "outputs": [
        {
          "internalType": "uint8",
          "name": "",
          "type": "uint8"
        }
      ],
      "stateMutability": "view",
      "type": "function",
      "constant": true
    },
    {
      "inputs": [
        {
          "internalType": "address",
          "name": "spender",
          "type": "address"
        },
        {
          "internalType": "uint256",
          "name": "subtractedValue",
          "type": "uint256"
        }
      ],
      "name": "decreaseAllowance",
      "outputs": [
        {
          "internalType": "bool",
          "name": "",
          "type": "bool"
        }
      ],
      "stateMutability": "nonpayable",
      "type": "function"
    },
    {
      "inputs": [
        {
          "internalType": "bytes32",
          "name": "role",
          "type": "bytes32"
        }
      ],
      "name": "getRoleAdmin",
      "outputs": [
        {
          "internalType": "bytes32",
          "name": "",
          "type": "bytes32"
        }
      ],
      "stateMutability": "view",
      "type": "function",
      "constant": true
    },
    {
      "inputs": [
        {
          "internalType": "bytes32",
          "name": "role",
          "type": "bytes32"
        },
        {
          "internalType": "address",
          "name": "account",
          "type": "address"
        }
      ],
      "name": "grantRole",
      "outputs": [],
      "stateMutability": "nonpayable",
      "type": "function"
    },
    {
      "inputs": [
        {
          "internalType": "bytes32",
          "name": "role",
          "type": "bytes32"
        },
        {
          "internalType": "address",
          "name": "account",
          "type": "address"
        }
      ],
      "name": "hasRole",
      "outputs": [
        {
          "internalType": "bool",
          "name": "",
          "type": "bool"
        }
      ],
      "stateMutability": "view",
      "type": "function",
      "constant": true
    },
    {
      "inputs": [
        {
          "internalType": "address",
          "name": "spender",
          "type": "address"
        },
        {
          "internalType": "uint256",
          "name": "addedValue",
          "type": "uint256"
        }
      ],
      "name": "increaseAllowance",
      "outputs": [
        {
          "internalType": "bool",
          "name": "",
          "type": "bool"
        }
      ],
      "stateMutability": "nonpayable",
      "type": "function"
    },
    {
      "inputs": [],
      "name": "name",
      "outputs": [
        {
          "internalType": "string",
          "name": "",
          "type": "string"
        }
      ],
      "stateMutability": "view",
      "type": "function",
      "constant": true
    },
    {
      "inputs": [],
      "name": "paused",
      "outputs": [
        {
          "internalType": "bool",
          "name": "",
          "type": "bool"
        }
      ],
      "stateMutability": "view",
      "type": "function",
      "constant": true
    },
    {
      "inputs": [
        {
          "internalType": "bytes32",
          "name": "role",
          "type": "bytes32"
        },
        {
          "internalType": "address",
          "name": "account",
          "type": "address"
        }
      ],
      "name": "renounceRole",
      "outputs": [],
      "stateMutability": "nonpayable",
      "type": "function"
    },
    {
      "inputs": [
        {
          "internalType": "bytes32",
          "name": "role",
          "type": "bytes32"
        },
        {
          "internalType": "address",
          "name": "account",
          "type": "address"
        }
      ],
      "name": "revokeRole",
      "outputs": [],
      "stateMutability": "nonpayable",
      "type": "function"
    },
    {
      "inputs": [
        {
          "internalType": "bytes4",
          "name": "interfaceId",
          "type": "bytes4"
        }
      ],
      "name": "supportsInterface",
      "outputs": [
        {
          "internalType": "bool",
          "name": "",
          "type": "bool"
        }
      ],
      "stateMutability": "view",
      "type": "function",
      "constant": true
    },
    {
      "inputs": [],
      "name": "symbol",
      "outputs": [
        {
          "internalType": "string",
          "name": "",
          "type": "string"
        }
      ],
      "stateMutability": "view",
      "type": "function",
      "constant": true
    },
    {
      "inputs": [],
      "name": "totalSupply",
      "outputs": [
        {
          "internalType": "uint256",
          "name": "",
          "type": "uint256"
        }
      ],
      "stateMutability": "view",
      "type": "function",
      "constant": true
    },
    {
      "inputs": [
        {
          "internalType": "uint256",
          "name": "snapshotId",
          "type": "uint256"
        }
      ],
      "name": "totalSupplyAt",
      "outputs": [
        {
          "internalType": "uint256",
          "name": "",
          "type": "uint256"
        }
      ],
      "stateMutability": "view",
      "type": "function",
      "constant": true
    },
    {
      "inputs": [
        {
          "internalType": "address",
          "name": "to",
          "type": "address"
        },
        {
          "internalType": "uint256",
          "name": "amount",
          "type": "uint256"
        }
      ],
      "name": "transfer",
      "outputs": [
        {
          "internalType": "bool",
          "name": "",
          "type": "bool"
        }
      ],
      "stateMutability": "nonpayable",
      "type": "function"
    },
    {
      "inputs": [
        {
          "internalType": "address",
          "name": "from",
          "type": "address"
        },
        {
          "internalType": "address",
          "name": "to",
          "type": "address"
        },
        {
          "internalType": "uint256",
          "name": "amount",
          "type": "uint256"
        }
      ],
      "name": "transferFrom",
      "outputs": [
        {
          "internalType": "bool",
          "name": "",
          "type": "bool"
        }
      ],
      "stateMutability": "nonpayable",
      "type": "function"
    },
    {
      "inputs": [],
      "name": "snapshot",
      "outputs": [],
      "stateMutability": "nonpayable",
      "type": "function"
    },
    {
      "inputs": [],
      "name": "pause",
      "outputs": [],
      "stateMutability": "nonpayable",
      "type": "function"
    },
    {
      "inputs": [],
      "name": "unpause",
      "outputs": [],
      "stateMutability": "nonpayable",
      "type": "function"
    },
    {
      "inputs": [
        {
          "internalType": "address",
          "name": "to",
          "type": "address"
        },
        {
          "internalType": "uint256",
          "name": "amount",
          "type": "uint256"
        }
      ],
      "name": "mint",
      "outputs": [],
      "stateMutability": "nonpayable",
      "type": "function"
    }
  ],
  "bytecode": "0x60806040523480156200001157600080fd5b50604051620021eb380380620021eb83398101604081905262000034916200066e565b604080518082018252600d81526c2432b4b93637b7b6aa37b5b2b760991b60208083019182528351808501909452600484526348494c4f60e01b9084015281519192916200008591600391620005c8565b5080516200009b906004906020840190620005c8565b5050600a805460ff1916905550620000c36000805160206200218b83398151915233620001fc565b620000de6000805160206200218b8339815191528062000287565b620000f9600080516020620021ab83398151915233620001fc565b62000123600080516020620021ab8339815191526000805160206200218b83398151915262000287565b6200014f7fad0f4d923b26df99ed90553d189d268443625c1ce82a268b2504301f2900d26833620001fc565b6200018a7fad0f4d923b26df99ed90553d189d268443625c1ce82a268b2504301f2900d2686000805160206200218b83398151915262000287565b620001af826200019d6012600a620007bd565b620001a99084620007d5565b620002d2565b620001ca600080516020620021cb83398151915233620001fc565b620001f4600080516020620021cb8339815191526000805160206200218b83398151915262000287565b50506200087e565b620002088282620003c9565b620002835760008281526009602090815260408083206001600160a01b03851684529091529020805460ff19166001179055620002423390565b6001600160a01b0316816001600160a01b0316837f2f8788117e7eff1d82e926ec794901d17c78024a50270940304540a733656f0d60405160405180910390a45b5050565b600082815260096020526040808220600101805490849055905190918391839186917fbd79b86ffe0ab8e8776151514217cd7cacd52c909f66475c3af44e129f0b00ff9190a4505050565b6001600160a01b0382166200032e5760405162461bcd60e51b815260206004820152601f60248201527f45524332303a206d696e7420746f20746865207a65726f20616464726573730060448201526064015b60405180910390fd5b6200033c60008383620003f6565b8060026000828254620003509190620007f7565b90915550506001600160a01b038216600090815260208190526040812080548392906200037f908490620007f7565b90915550506040518181526001600160a01b038316906000907fddf252ad1be2c89b69c2b068fc378daa952ba7f163c4a11628f55a4df523b3ef9060200160405180910390a35050565b60008281526009602090815260408083206001600160a01b038516845290915290205460ff165b92915050565b600a5460ff16156200043e5760405162461bcd60e51b815260206004820152601060248201526f14185d5cd8589b194e881c185d5cd95960821b604482015260640162000325565b620004568383836200045b60201b620008361760201c565b505050565b620004738383836200045660201b620004fb1760201c565b6001600160a01b03831662000497576200048d82620004c2565b62000456620004fa565b6001600160a01b038216620004b1576200048d83620004c2565b620004bc83620004c2565b62000456825b6001600160a01b03811660009081526005602090815260408083209183905290912054620004f791906200050c565b6200050c565b50565b6200050a6006620004f160025490565b565b6000620005186200055b565b905080620005268462000579565b101562000456578254600180820185556000858152602080822090930193909355938401805494850181558252902090910155565b6000620005746008620005c460201b6200087e1760201c565b905090565b805460009081036200058d57506000919050565b815482906200059f9060019062000812565b81548110620005b257620005b26200082c565b90600052602060002001549050919050565b5490565b828054620005d69062000842565b90600052602060002090601f016020900481019282620005fa576000855562000645565b82601f106200061557805160ff191683800117855562000645565b8280016001018555821562000645579182015b828111156200064557825182559160200191906001019062000628565b506200065392915062000657565b5090565b5b8082111562000653576000815560010162000658565b600080604083850312156200068257600080fd5b82516001600160a01b03811681146200069a57600080fd5b6020939093015192949293505050565b634e487b7160e01b600052601160045260246000fd5b600181815b8085111562000701578160001904821115620006e557620006e5620006aa565b80851615620006f357918102915b93841c9390800290620006c5565b509250929050565b6000826200071a57506001620003f0565b816200072957506000620003f0565b81600181146200074257600281146200074d576200076d565b6001915050620003f0565b60ff841115620007615762000761620006aa565b50506001821b620003f0565b5060208310610133831016604e8410600b841016171562000792575081810a620003f0565b6200079e8383620006c0565b8060001904821115620007b557620007b5620006aa565b029392505050565b6000620007ce60ff84168362000709565b9392505050565b6000816000190483118215151615620007f257620007f2620006aa565b500290565b600082198211156200080d576200080d620006aa565b500190565b600082821015620008275762000827620006aa565b500390565b634e487b7160e01b600052603260045260246000fd5b600181811c908216806200085757607f821691505b6020821081036200087857634e487b7160e01b600052602260045260246000fd5b50919050565b6118fd806200088e6000396000f3fe608060405234801561001057600080fd5b50600436106101a95760003560e01c80634ee2cd7e116100f95780639711715a11610097578063a457c2d711610071578063a457c2d71461035e578063a9059cbb14610371578063d547741f14610384578063dd62ed3e1461039757600080fd5b80639711715a1461033b578063981b24d014610343578063a217fddf1461035657600080fd5b806379cc6790116100d357806379cc6790146103055780638456cb591461031857806391d148541461032057806395d89b411461033357600080fd5b80634ee2cd7e146102be5780635c975abb146102d157806370a08231146102dc57600080fd5b80632f2ff15d116101665780633950935111610140578063395093511461027d5780633f4ba83a1461029057806340c10f191461029857806342966c68146102ab57600080fd5b80632f2ff15d14610246578063313ce5671461025b57806336568abe1461026a57600080fd5b806301ffc9a7146101ae57806306fdde03146101d6578063095ea7b3146101eb57806318160ddd146101fe57806323b872dd14610210578063248a9ca314610223575b600080fd5b6101c16101bc3660046115bf565b6103d0565b60405190151581526020015b60405180910390f35b6101de610407565b6040516101cd9190611615565b6101c16101f936600461165f565b610499565b6002545b6040519081526020016101cd565b6101c161021e366004611689565b6104b1565b6102026102313660046116c5565b60009081526009602052604090206001015490565b6102596102543660046116de565b6104d5565b005b604051601281526020016101cd565b6102596102783660046116de565b610500565b6101c161028b36600461165f565b610583565b6102596105c2565b6102596102a636600461165f565b6105f8565b6102596102b93660046116c5565b61062d565b6102026102cc36600461165f565b610637565b600a5460ff166101c1565b6102026102ea36600461170a565b6001600160a01b031660009081526020819052604090205490565b61025961031336600461165f565b610690565b6102596106a5565b6101c161032e3660046116de565b6106d8565b6101de610703565b610259610712565b6102026103513660046116c5565b610745565b610202600081565b6101c161036c36600461165f565b610770565b6101c161037f36600461165f565b610802565b6102596103923660046116de565b610810565b6102026103a5366004611725565b6001600160a01b03918216600090815260016020908152604080832093909416825291909152205490565b60006001600160e01b03198216637965db0b60e01b148061040157506301ffc9a760e01b6001600160e01b03198316145b92915050565b6060600380546104169061174f565b80601f01602080910402602001604051908101604052809291908181526020018280546104429061174f565b801561048f5780601f106104645761010080835404028352916020019161048f565b820191906000526020600020905b81548152906001019060200180831161047257829003601f168201915b5050505050905090565b6000336104a7818585610882565b5060019392505050565b6000336104bf8582856109a6565b6104ca858585610a38565b506001949350505050565b6000828152600960205260409020600101546104f18133610c11565b6104fb8383610c75565b505050565b6001600160a01b03811633146105755760405162461bcd60e51b815260206004820152602f60248201527f416363657373436f6e74726f6c3a2063616e206f6e6c792072656e6f756e636560448201526e103937b632b9903337b91039b2b63360891b60648201526084015b60405180910390fd5b61057f8282610cfb565b5050565b3360008181526001602090815260408083206001600160a01b03871684529091528120549091906104a790829086906105bd90879061179f565b610882565b7fad0f4d923b26df99ed90553d189d268443625c1ce82a268b2504301f2900d2686105ed8133610c11565b6105f5610d62565b50565b7f8ccbc2c0141407af8e533e0caeae8e08f837db7ce5bf08ab977e0c83af5622a46106238133610c11565b6104fb8383610df5565b6105f53382610ee0565b6001600160a01b03821660009081526005602052604081208190819061065e90859061103a565b9150915081610685576001600160a01b038516600090815260208190526040902054610687565b805b95945050505050565b61069b8233836109a6565b61057f8282610ee0565b7fad0f4d923b26df99ed90553d189d268443625c1ce82a268b2504301f2900d2686106d08133610c11565b6105f5611130565b60009182526009602090815260408084206001600160a01b0393909316845291905290205460ff1690565b6060600480546104169061174f565b7fb6c0a1cbce9c56fc4c0b11d33f313ec475dc9c18c6c070f117a19b6c6234dcf461073d8133610c11565b61057f6111ab565b600080600061075584600661103a565b915091508161076657600254610768565b805b949350505050565b3360008181526001602090815260408083206001600160a01b0387168452909152812054909190838110156107f55760405162461bcd60e51b815260206004820152602560248201527f45524332303a2064656372656173656420616c6c6f77616e63652062656c6f77604482015264207a65726f60d81b606482015260840161056c565b6104ca8286868403610882565b6000336104a7818585610a38565b60008281526009602052604090206001015461082c8133610c11565b6104fb8383610cfb565b6001600160a01b0383166108555761084d82611205565b6104fb611237565b6001600160a01b03821661086c5761084d83611205565b61087583611205565b6104fb82611205565b5490565b6001600160a01b0383166108e45760405162461bcd60e51b8152602060048201526024808201527f45524332303a20617070726f76652066726f6d20746865207a65726f206164646044820152637265737360e01b606482015260840161056c565b6001600160a01b0382166109455760405162461bcd60e51b815260206004820152602260248201527f45524332303a20617070726f766520746f20746865207a65726f206164647265604482015261737360f01b606482015260840161056c565b6001600160a01b0383811660008181526001602090815260408083209487168084529482529182902085905590518481527f8c5be1e5ebec7d5bd14f71427d1e84f3dd0314c0f7b2291e5b200ac8c7c3b925910160405180910390a3505050565b6001600160a01b038381166000908152600160209081526040808320938616835292905220546000198114610a325781811015610a255760405162461bcd60e51b815260206004820152601d60248201527f45524332303a20696e73756666696369656e7420616c6c6f77616e6365000000604482015260640161056c565b610a328484848403610882565b50505050565b6001600160a01b038316610a9c5760405162461bcd60e51b815260206004820152602560248201527f45524332303a207472616e736665722066726f6d20746865207a65726f206164604482015264647265737360d81b606482015260840161056c565b6001600160a01b038216610afe5760405162461bcd60e51b815260206004820152602360248201527f45524332303a207472616e7366657220746f20746865207a65726f206164647260448201526265737360e81b606482015260840161056c565b610b09838383611247565b6001600160a01b03831660009081526020819052604090205481811015610b815760405162461bcd60e51b815260206004820152602660248201527f45524332303a207472616e7366657220616d6f756e7420657863656564732062604482015265616c616e636560d01b606482015260840161056c565b6001600160a01b03808516600090815260208190526040808220858503905591851681529081208054849290610bb890849061179f565b92505081905550826001600160a01b0316846001600160a01b03167fddf252ad1be2c89b69c2b068fc378daa952ba7f163c4a11628f55a4df523b3ef84604051610c0491815260200190565b60405180910390a3610a32565b610c1b82826106d8565b61057f57610c33816001600160a01b03166014611298565b610c3e836020611298565b604051602001610c4f9291906117b7565b60408051601f198184030181529082905262461bcd60e51b825261056c91600401611615565b610c7f82826106d8565b61057f5760008281526009602090815260408083206001600160a01b03851684529091529020805460ff19166001179055610cb73390565b6001600160a01b0316816001600160a01b0316837f2f8788117e7eff1d82e926ec794901d17c78024a50270940304540a733656f0d60405160405180910390a45050565b610d0582826106d8565b1561057f5760008281526009602090815260408083206001600160a01b0385168085529252808320805460ff1916905551339285917ff6391f5c32d9c69d2a47ea670b442974b53935d1edc7fd64eb21e047a839171b9190a45050565b600a5460ff16610dab5760405162461bcd60e51b815260206004820152601460248201527314185d5cd8589b194e881b9bdd081c185d5cd95960621b604482015260640161056c565b600a805460ff191690557f5db9ee0a495bf2e6ff9c91a7834c1ba4fdd244a5e8aa4e537bd38aeae4b073aa335b6040516001600160a01b03909116815260200160405180910390a1565b6001600160a01b038216610e4b5760405162461bcd60e51b815260206004820152601f60248201527f45524332303a206d696e7420746f20746865207a65726f206164647265737300604482015260640161056c565b610e5760008383611247565b8060026000828254610e69919061179f565b90915550506001600160a01b03821660009081526020819052604081208054839290610e9690849061179f565b90915550506040518181526001600160a01b038316906000907fddf252ad1be2c89b69c2b068fc378daa952ba7f163c4a11628f55a4df523b3ef9060200160405180910390a35050565b6001600160a01b038216610f405760405162461bcd60e51b815260206004820152602160248201527f45524332303a206275726e2066726f6d20746865207a65726f206164647265736044820152607360f81b606482015260840161056c565b610f4c82600083611247565b6001600160a01b03821660009081526020819052604090205481811015610fc05760405162461bcd60e51b815260206004820152602260248201527f45524332303a206275726e20616d6f756e7420657863656564732062616c616e604482015261636560f01b606482015260840161056c565b6001600160a01b0383166000908152602081905260408120838303905560028054849290610fef90849061182c565b90915550506040518281526000906001600160a01b038516907fddf252ad1be2c89b69c2b068fc378daa952ba7f163c4a11628f55a4df523b3ef9060200160405180910390a3505050565b600080600084116110865760405162461bcd60e51b815260206004820152601660248201527504552433230536e617073686f743a20696420697320360541b604482015260640161056c565b61108e61143b565b8411156110dd5760405162461bcd60e51b815260206004820152601d60248201527f4552433230536e617073686f743a206e6f6e6578697374656e74206964000000604482015260640161056c565b60006110e9848661144b565b84549091508103611101576000809250925050611129565b600184600101828154811061111857611118611843565b906000526020600020015492509250505b9250929050565b600a5460ff16156111765760405162461bcd60e51b815260206004820152601060248201526f14185d5cd8589b194e881c185d5cd95960821b604482015260640161056c565b600a805460ff191660011790557f62e78cea01bee320cd4e420270b5ea74000d11b0c9f74754ebdbfc544b05a258610dd83390565b60006111bb600880546001019055565b60006111c561143b565b90507f8030e83b04d87bef53480e26263266d6ca66863aa8506aca6f2559d18aa1cb67816040516111f891815260200190565b60405180910390a1919050565b6001600160a01b038116600090815260056020908152604080832091839052909120546105f59190611510565b611510565b611245600661123260025490565b565b600a5460ff161561128d5760405162461bcd60e51b815260206004820152601060248201526f14185d5cd8589b194e881c185d5cd95960821b604482015260640161056c565b6104fb838383610836565b606060006112a7836002611859565b6112b290600261179f565b67ffffffffffffffff8111156112ca576112ca611878565b6040519080825280601f01601f1916602001820160405280156112f4576020820181803683370190505b509050600360fc1b8160008151811061130f5761130f611843565b60200101906001600160f81b031916908160001a905350600f60fb1b8160018151811061133e5761133e611843565b60200101906001600160f81b031916908160001a9053506000611362846002611859565b61136d90600161179f565b90505b60018111156113e5576f181899199a1a9b1b9c1cb0b131b232b360811b85600f16601081106113a1576113a1611843565b1a60f81b8282815181106113b7576113b7611843565b60200101906001600160f81b031916908160001a90535060049490941c936113de8161188e565b9050611370565b5083156114345760405162461bcd60e51b815260206004820181905260248201527f537472696e67733a20686578206c656e67746820696e73756666696369656e74604482015260640161056c565b9392505050565b600061144660085490565b905090565b8154600090810361145e57506000610401565b82546000905b808210156114ba576000611478838361155a565b90508486828154811061148d5761148d611843565b906000526020600020015411156114a6578091506114b4565b6114b181600161179f565b92505b50611464565b6000821180156114ef575083856114d260018561182c565b815481106114e2576114e2611843565b9060005260206000200154145b15611508576114ff60018361182c565b92505050610401565b509050610401565b600061151a61143b565b90508061152684611575565b10156104fb578254600180820185556000858152602080822090930193909355938401805494850181558252902090910155565b600061156960028484186118a5565b6114349084841661179f565b8054600090810361158857506000919050565b815482906115989060019061182c565b815481106115a8576115a8611843565b90600052602060002001549050919050565b919050565b6000602082840312156115d157600080fd5b81356001600160e01b03198116811461143457600080fd5b60005b838110156116045781810151838201526020016115ec565b83811115610a325750506000910152565b60208152600082518060208401526116348160408501602087016115e9565b601f01601f19169190910160400192915050565b80356001600160a01b03811681146115ba57600080fd5b6000806040838503121561167257600080fd5b61167b83611648565b946020939093013593505050565b60008060006060848603121561169e57600080fd5b6116a784611648565b92506116b560208501611648565b9150604084013590509250925092565b6000602082840312156116d757600080fd5b5035919050565b600080604083850312156116f157600080fd5b8235915061170160208401611648565b90509250929050565b60006020828403121561171c57600080fd5b61143482611648565b6000806040838503121561173857600080fd5b61174183611648565b915061170160208401611648565b600181811c9082168061176357607f821691505b60208210810361178357634e487b7160e01b600052602260045260246000fd5b50919050565b634e487b7160e01b600052601160045260246000fd5b600082198211156117b2576117b2611789565b500190565b7f416363657373436f6e74726f6c3a206163636f756e74200000000000000000008152600083516117ef8160178501602088016115e9565b7001034b99036b4b9b9b4b733903937b6329607d1b60179184019182015283516118208160288401602088016115e9565b01602801949350505050565b60008282101561183e5761183e611789565b500390565b634e487b7160e01b600052603260045260246000fd5b600081600019048311821515161561187357611873611789565b500290565b634e487b7160e01b600052604160045260246000fd5b60008161189d5761189d611789565b506000190190565b6000826118c257634e487b7160e01b600052601260045260246000fd5b50049056fea2646970667358221220ff9a7a87764acbc57607d9645aeaeb1db14cc27ad0afb7ec4ad99ec87505696064736f6c634300080d0033fddb143be89620896ce3745ceb136fd672c98dea954adb8724dcfae9dc08796db6c0a1cbce9c56fc4c0b11d33f313ec475dc9c18c6c070f117a19b6c6234dcf48ccbc2c0141407af8e533e0caeae8e08f837db7ce5bf08ab977e0c83af5622a4",
  "immutableReferences": {},
  "source": "// SPDX-License-Identifier: MIT\r\npragma solidity ^0.8.4;\r\n\r\nimport \"@openzeppelin/contracts/token/ERC20/ERC20.sol\";\r\nimport \"@openzeppelin/contracts/token/ERC20/extensions/ERC20Burnable.sol\";\r\nimport \"@openzeppelin/contracts/token/ERC20/extensions/ERC20Snapshot.sol\";\r\nimport \"@openzeppelin/contracts/access/AccessControl.sol\";\r\nimport \"@openzeppelin/contracts/security/Pausable.sol\";\r\nimport '../utils/Constants.sol';\r\n\r\ncontract HeirloomToken is ERC20, ERC20Burnable, ERC20Snapshot, AccessControl, Pausable, Constants {\r\n\r\n    constructor(address treasury, uint256 supply) ERC20(\"HeirloomToken\", \"HILO\") {\r\n        _grantRole(ADMIN_ROLE, msg.sender);\r\n        _setRoleAdmin(ADMIN_ROLE, ADMIN_ROLE);\r\n        _grantRole(SNAPSHOT_ROLE, msg.sender);\r\n        _setRoleAdmin(SNAPSHOT_ROLE, ADMIN_ROLE);\r\n        _grantRole(PAUSER_ROLE, msg.sender);\r\n        _setRoleAdmin(PAUSER_ROLE, ADMIN_ROLE);\r\n        _mint(treasury, supply * 10 ** decimals());\r\n        _grantRole(MINTER_ROLE, msg.sender);\r\n        _setRoleAdmin(MINTER_ROLE, ADMIN_ROLE);\r\n    }\r\n\r\n    function snapshot() public onlyRole(SNAPSHOT_ROLE) {\r\n        _snapshot();\r\n    }\r\n\r\n    function pause() public onlyRole(PAUSER_ROLE) {\r\n        _pause();\r\n    }\r\n\r\n    function unpause() public onlyRole(PAUSER_ROLE) {\r\n        _unpause();\r\n    }\r\n\r\n    function mint(address to, uint256 amount) public onlyRole(MINTER_ROLE) {\r\n        _mint(to, amount);\r\n    }\r\n\r\n    function _beforeTokenTransfer(address from, address to, uint256 amount)\r\n        internal\r\n        whenNotPaused\r\n        override(ERC20, ERC20Snapshot)\r\n    {\r\n        super._beforeTokenTransfer(from, to, amount);\r\n    }\r\n}\r\n",
  "sourcePath": "D:\\work\\heirloom\\src\\contracts\\contracts\\erc20\\HeirloomToken.sol",
  "compiler": {
    "name": "solc",
    "version": "0.8.13+commit.abaa5c0e.Emscripten.clang"
  },
  "schemaVersion": "3.4.7",
  "updatedAt": "2022-04-17T09:59:35.253Z",
  "networkType": "ethereum",
  "devdoc": {
    "kind": "dev",
    "methods": {
      "allowance(address,address)": {
        "details": "See {IERC20-allowance}."
      },
      "approve(address,uint256)": {
        "details": "See {IERC20-approve}. NOTE: If `amount` is the maximum `uint256`, the allowance is not updated on `transferFrom`. This is semantically equivalent to an infinite approval. Requirements: - `spender` cannot be the zero address."
      },
      "balanceOf(address)": {
        "details": "See {IERC20-balanceOf}."
      },
      "balanceOfAt(address,uint256)": {
        "details": "Retrieves the balance of `account` at the time `snapshotId` was created."
      },
      "burn(uint256)": {
        "details": "Destroys `amount` tokens from the caller. See {ERC20-_burn}."
      },
      "burnFrom(address,uint256)": {
        "details": "Destroys `amount` tokens from `account`, deducting from the caller's allowance. See {ERC20-_burn} and {ERC20-allowance}. Requirements: - the caller must have allowance for ``accounts``'s tokens of at least `amount`."
      },
      "decimals()": {
        "details": "Returns the number of decimals used to get its user representation. For example, if `decimals` equals `2`, a balance of `505` tokens should be displayed to a user as `5.05` (`505 / 10 ** 2`). Tokens usually opt for a value of 18, imitating the relationship between Ether and Wei. This is the value {ERC20} uses, unless this function is overridden; NOTE: This information is only used for _display_ purposes: it in no way affects any of the arithmetic of the contract, including {IERC20-balanceOf} and {IERC20-transfer}."
      },
      "decreaseAllowance(address,uint256)": {
        "details": "Atomically decreases the allowance granted to `spender` by the caller. This is an alternative to {approve} that can be used as a mitigation for problems described in {IERC20-approve}. Emits an {Approval} event indicating the updated allowance. Requirements: - `spender` cannot be the zero address. - `spender` must have allowance for the caller of at least `subtractedValue`."
      },
      "getRoleAdmin(bytes32)": {
        "details": "Returns the admin role that controls `role`. See {grantRole} and {revokeRole}. To change a role's admin, use {_setRoleAdmin}."
      },
      "grantRole(bytes32,address)": {
        "details": "Grants `role` to `account`. If `account` had not been already granted `role`, emits a {RoleGranted} event. Requirements: - the caller must have ``role``'s admin role."
      },
      "hasRole(bytes32,address)": {
        "details": "Returns `true` if `account` has been granted `role`."
      },
      "increaseAllowance(address,uint256)": {
        "details": "Atomically increases the allowance granted to `spender` by the caller. This is an alternative to {approve} that can be used as a mitigation for problems described in {IERC20-approve}. Emits an {Approval} event indicating the updated allowance. Requirements: - `spender` cannot be the zero address."
      },
      "name()": {
        "details": "Returns the name of the token."
      },
      "paused()": {
        "details": "Returns true if the contract is paused, and false otherwise."
      },
      "renounceRole(bytes32,address)": {
        "details": "Revokes `role` from the calling account. Roles are often managed via {grantRole} and {revokeRole}: this function's purpose is to provide a mechanism for accounts to lose their privileges if they are compromised (such as when a trusted device is misplaced). If the calling account had been revoked `role`, emits a {RoleRevoked} event. Requirements: - the caller must be `account`."
      },
      "revokeRole(bytes32,address)": {
        "details": "Revokes `role` from `account`. If `account` had been granted `role`, emits a {RoleRevoked} event. Requirements: - the caller must have ``role``'s admin role."
      },
      "supportsInterface(bytes4)": {
        "details": "See {IERC165-supportsInterface}."
      },
      "symbol()": {
        "details": "Returns the symbol of the token, usually a shorter version of the name."
      },
      "totalSupply()": {
        "details": "See {IERC20-totalSupply}."
      },
      "totalSupplyAt(uint256)": {
        "details": "Retrieves the total supply at the time `snapshotId` was created."
      },
      "transfer(address,uint256)": {
        "details": "See {IERC20-transfer}. Requirements: - `to` cannot be the zero address. - the caller must have a balance of at least `amount`."
      },
      "transferFrom(address,address,uint256)": {
        "details": "See {IERC20-transferFrom}. Emits an {Approval} event indicating the updated allowance. This is not required by the EIP. See the note at the beginning of {ERC20}. NOTE: Does not update the allowance if the current allowance is the maximum `uint256`. Requirements: - `from` and `to` cannot be the zero address. - `from` must have a balance of at least `amount`. - the caller must have allowance for ``from``'s tokens of at least `amount`."
      }
    },
    "version": 1
  },
  "userdoc": {
    "kind": "user",
    "methods": {},
    "version": 1
  }
}