{
  "contractName": "HeirloomLicenseNFT",
  "abi": [
    {
      "inputs": [
        {
          "internalType": "string",
          "name": "baseTokenUri",
          "type": "string"
        },
        {
          "internalType": "address",
          "name": "operator",
          "type": "address"
        },
        {
          "internalType": "address",
          "name": "admin",
          "type": "address"
        }
      ],
      "stateMutability": "nonpayable",
      "type": "constructor"
    },
    {
      "anonymous": false,
      "inputs": [
        {
          "indexed": true,
          "internalType": "address",
          "name": "account",
          "type": "address"
        },
        {
          "indexed": true,
          "internalType": "address",
          "name": "operator",
          "type": "address"
        },
        {
          "indexed": false,
          "internalType": "bool",
          "name": "approved",
          "type": "bool"
        }
      ],
      "name": "ApprovalForAll",
      "type": "event"
    },
    {
      "anonymous": false,
      "inputs": [
        {
          "indexed": false,
          "internalType": "address",
          "name": "account",
          "type": "address"
        }
      ],
      "name": "Paused",
      "type": "event"
    },
    {
      "anonymous": false,
      "inputs": [
        {
          "indexed": true,
          "internalType": "bytes32",
          "name": "role",
          "type": "bytes32"
        },
        {
          "indexed": true,
          "internalType": "bytes32",
          "name": "previousAdminRole",
          "type": "bytes32"
        },
        {
          "indexed": true,
          "internalType": "bytes32",
          "name": "newAdminRole",
          "type": "bytes32"
        }
      ],
      "name": "RoleAdminChanged",
      "type": "event"
    },
    {
      "anonymous": false,
      "inputs": [
        {
          "indexed": true,
          "internalType": "bytes32",
          "name": "role",
          "type": "bytes32"
        },
        {
          "indexed": true,
          "internalType": "address",
          "name": "account",
          "type": "address"
        },
        {
          "indexed": true,
          "internalType": "address",
          "name": "sender",
          "type": "address"
        }
      ],
      "name": "RoleGranted",
      "type": "event"
    },
    {
      "anonymous": false,
      "inputs": [
        {
          "indexed": true,
          "internalType": "bytes32",
          "name": "role",
          "type": "bytes32"
        },
        {
          "indexed": true,
          "internalType": "address",
          "name": "account",
          "type": "address"
        },
        {
          "indexed": true,
          "internalType": "address",
          "name": "sender",
          "type": "address"
        }
      ],
      "name": "RoleRevoked",
      "type": "event"
    },
    {
      "anonymous": false,
      "inputs": [
        {
          "indexed": false,
          "internalType": "uint256",
          "name": "tokenId",
          "type": "uint256"
        },
        {
          "components": [
            {
              "internalType": "address payable",
              "name": "account",
              "type": "address"
            },
            {
              "internalType": "uint96",
              "name": "value",
              "type": "uint96"
            }
          ],
          "indexed": false,
          "internalType": "struct LibPart.Part[]",
          "name": "royalties",
          "type": "tuple[]"
        }
      ],
      "name": "RoyaltiesSet",
      "type": "event"
    },
    {
      "anonymous": false,
      "inputs": [
        {
          "indexed": true,
          "internalType": "address",
          "name": "operator",
          "type": "address"
        },
        {
          "indexed": true,
          "internalType": "address",
          "name": "from",
          "type": "address"
        },
        {
          "indexed": true,
          "internalType": "address",
          "name": "to",
          "type": "address"
        },
        {
          "indexed": false,
          "internalType": "uint256[]",
          "name": "ids",
          "type": "uint256[]"
        },
        {
          "indexed": false,
          "internalType": "uint256[]",
          "name": "values",
          "type": "uint256[]"
        }
      ],
      "name": "TransferBatch",
      "type": "event"
    },
    {
      "anonymous": false,
      "inputs": [
        {
          "indexed": true,
          "internalType": "address",
          "name": "operator",
          "type": "address"
        },
        {
          "indexed": true,
          "internalType": "address",
          "name": "from",
          "type": "address"
        },
        {
          "indexed": true,
          "internalType": "address",
          "name": "to",
          "type": "address"
        },
        {
          "indexed": false,
          "internalType": "uint256",
          "name": "id",
          "type": "uint256"
        },
        {
          "indexed": false,
          "internalType": "uint256",
          "name": "value",
          "type": "uint256"
        }
      ],
      "name": "TransferSingle",
      "type": "event"
    },
    {
      "anonymous": false,
      "inputs": [
        {
          "indexed": false,
          "internalType": "string",
          "name": "value",
          "type": "string"
        },
        {
          "indexed": true,
          "internalType": "uint256",
          "name": "id",
          "type": "uint256"
        }
      ],
      "name": "URI",
      "type": "event"
    },
    {
      "anonymous": false,
      "inputs": [
        {
          "indexed": false,
          "internalType": "address",
          "name": "account",
          "type": "address"
        }
      ],
      "name": "Unpaused",
      "type": "event"
    },
    {
      "inputs": [],
      "name": "DEFAULT_ADMIN_ROLE",
      "outputs": [
        {
          "internalType": "bytes32",
          "name": "",
          "type": "bytes32"
        }
      ],
      "stateMutability": "view",
      "type": "function",
      "constant": true
    },
    {
      "inputs": [
        {
          "internalType": "address",
          "name": "account",
          "type": "address"
        },
        {
          "internalType": "uint256",
          "name": "id",
          "type": "uint256"
        }
      ],
      "name": "balanceOf",
      "outputs": [
        {
          "internalType": "uint256",
          "name": "",
          "type": "uint256"
        }
      ],
      "stateMutability": "view",
      "type": "function",
      "constant": true
    },
    {
      "inputs": [
        {
          "internalType": "address[]",
          "name": "accounts",
          "type": "address[]"
        },
        {
          "internalType": "uint256[]",
          "name": "ids",
          "type": "uint256[]"
        }
      ],
      "name": "balanceOfBatch",
      "outputs": [
        {
          "internalType": "uint256[]",
          "name": "",
          "type": "uint256[]"
        }
      ],
      "stateMutability": "view",
      "type": "function",
      "constant": true
    },
    {
      "inputs": [
        {
          "internalType": "uint256",
          "name": "id",
          "type": "uint256"
        }
      ],
      "name": "exists",
      "outputs": [
        {
          "internalType": "bool",
          "name": "",
          "type": "bool"
        }
      ],
      "stateMutability": "view",
      "type": "function",
      "constant": true
    },
    {
      "inputs": [
        {
          "internalType": "uint256",
          "name": "id",
          "type": "uint256"
        }
      ],
      "name": "getHeirloomV1Royalties",
      "outputs": [
        {
          "components": [
            {
              "internalType": "address payable",
              "name": "account",
              "type": "address"
            },
            {
              "internalType": "uint96",
              "name": "value",
              "type": "uint96"
            }
          ],
          "internalType": "struct LibPart.Part[]",
          "name": "",
          "type": "tuple[]"
        }
      ],
      "stateMutability": "view",
      "type": "function",
      "constant": true
    },
    {
      "inputs": [
        {
          "internalType": "bytes32",
          "name": "role",
          "type": "bytes32"
        }
      ],
      "name": "getRoleAdmin",
      "outputs": [
        {
          "internalType": "bytes32",
          "name": "",
          "type": "bytes32"
        }
      ],
      "stateMutability": "view",
      "type": "function",
      "constant": true
    },
    {
      "inputs": [
        {
          "internalType": "bytes32",
          "name": "role",
          "type": "bytes32"
        },
        {
          "internalType": "address",
          "name": "account",
          "type": "address"
        }
      ],
      "name": "grantRole",
      "outputs": [],
      "stateMutability": "nonpayable",
      "type": "function"
    },
    {
      "inputs": [
        {
          "internalType": "bytes32",
          "name": "role",
          "type": "bytes32"
        },
        {
          "internalType": "address",
          "name": "account",
          "type": "address"
        }
      ],
      "name": "hasRole",
      "outputs": [
        {
          "internalType": "bool",
          "name": "",
          "type": "bool"
        }
      ],
      "stateMutability": "view",
      "type": "function",
      "constant": true
    },
    {
      "inputs": [
        {
          "internalType": "address",
          "name": "account",
          "type": "address"
        },
        {
          "internalType": "address",
          "name": "operator",
          "type": "address"
        }
      ],
      "name": "isApprovedForAll",
      "outputs": [
        {
          "internalType": "bool",
          "name": "",
          "type": "bool"
        }
      ],
      "stateMutability": "view",
      "type": "function",
      "constant": true
    },
    {
      "inputs": [],
      "name": "paused",
      "outputs": [
        {
          "internalType": "bool",
          "name": "",
          "type": "bool"
        }
      ],
      "stateMutability": "view",
      "type": "function",
      "constant": true
    },
    {
      "inputs": [
        {
          "internalType": "bytes32",
          "name": "role",
          "type": "bytes32"
        },
        {
          "internalType": "address",
          "name": "account",
          "type": "address"
        }
      ],
      "name": "renounceRole",
      "outputs": [],
      "stateMutability": "nonpayable",
      "type": "function"
    },
    {
      "inputs": [
        {
          "internalType": "bytes32",
          "name": "role",
          "type": "bytes32"
        },
        {
          "internalType": "address",
          "name": "account",
          "type": "address"
        }
      ],
      "name": "revokeRole",
      "outputs": [],
      "stateMutability": "nonpayable",
      "type": "function"
    },
    {
      "inputs": [
        {
          "internalType": "address",
          "name": "from",
          "type": "address"
        },
        {
          "internalType": "address",
          "name": "to",
          "type": "address"
        },
        {
          "internalType": "uint256[]",
          "name": "ids",
          "type": "uint256[]"
        },
        {
          "internalType": "uint256[]",
          "name": "amounts",
          "type": "uint256[]"
        },
        {
          "internalType": "bytes",
          "name": "data",
          "type": "bytes"
        }
      ],
      "name": "safeBatchTransferFrom",
      "outputs": [],
      "stateMutability": "nonpayable",
      "type": "function"
    },
    {
      "inputs": [
        {
          "internalType": "address",
          "name": "from",
          "type": "address"
        },
        {
          "internalType": "address",
          "name": "to",
          "type": "address"
        },
        {
          "internalType": "uint256",
          "name": "id",
          "type": "uint256"
        },
        {
          "internalType": "uint256",
          "name": "amount",
          "type": "uint256"
        },
        {
          "internalType": "bytes",
          "name": "data",
          "type": "bytes"
        }
      ],
      "name": "safeTransferFrom",
      "outputs": [],
      "stateMutability": "nonpayable",
      "type": "function"
    },
    {
      "inputs": [
        {
          "internalType": "address",
          "name": "operator",
          "type": "address"
        },
        {
          "internalType": "bool",
          "name": "approved",
          "type": "bool"
        }
      ],
      "name": "setApprovalForAll",
      "outputs": [],
      "stateMutability": "nonpayable",
      "type": "function"
    },
    {
      "inputs": [
        {
          "internalType": "uint256",
          "name": "id",
          "type": "uint256"
        }
      ],
      "name": "totalSupply",
      "outputs": [
        {
          "internalType": "uint256",
          "name": "",
          "type": "uint256"
        }
      ],
      "stateMutability": "view",
      "type": "function",
      "constant": true
    },
    {
      "inputs": [
        {
          "internalType": "uint256",
          "name": "",
          "type": "uint256"
        }
      ],
      "name": "uri",
      "outputs": [
        {
          "internalType": "string",
          "name": "",
          "type": "string"
        }
      ],
      "stateMutability": "view",
      "type": "function",
      "constant": true
    },
    {
      "inputs": [
        {
          "internalType": "string",
          "name": "newuri",
          "type": "string"
        }
      ],
      "name": "setURI",
      "outputs": [],
      "stateMutability": "nonpayable",
      "type": "function"
    },
    {
      "inputs": [],
      "name": "pause",
      "outputs": [],
      "stateMutability": "nonpayable",
      "type": "function"
    },
    {
      "inputs": [],
      "name": "unpause",
      "outputs": [],
      "stateMutability": "nonpayable",
      "type": "function"
    },
    {
      "inputs": [
        {
          "internalType": "address",
          "name": "account",
          "type": "address"
        },
        {
          "internalType": "uint256",
          "name": "maxSupply",
          "type": "uint256"
        },
        {
          "internalType": "uint96",
          "name": "rbp",
          "type": "uint96"
        }
      ],
      "name": "createLicense",
      "outputs": [
        {
          "internalType": "uint256",
          "name": "",
          "type": "uint256"
        }
      ],
      "stateMutability": "nonpayable",
      "type": "function"
    },
    {
      "inputs": [
        {
          "internalType": "bytes4",
          "name": "interfaceId",
          "type": "bytes4"
        }
      ],
      "name": "supportsInterface",
      "outputs": [
        {
          "internalType": "bool",
          "name": "",
          "type": "bool"
        }
      ],
      "stateMutability": "view",
      "type": "function",
      "constant": true
    }
  ],
  "bytecode": "0x60806040523480156200001157600080fd5b50604051620029d2380380620029d2833981016040819052620000349162000336565b82620000408162000155565b506006805460ff1916905562000066600080516020620029b2833981519152836200016e565b6200008160008051602062002992833981519152826200016e565b620000ad7fad0f4d923b26df99ed90553d189d268443625c1ce82a268b2504301f2900d268826200016e565b620000e87fad0f4d923b26df99ed90553d189d268443625c1ce82a268b2504301f2900d2686000805160206200299283398151915262000212565b62000112600080516020620029b28339815191526000805160206200299283398151915262000212565b6200012d600080516020620029928339815191528062000212565b50600880546001600160a01b0319166001600160a01b03929092169190911790555062000475565b80516200016a9060029060208401906200025d565b5050565b60008281526003602090815260408083206001600160a01b038516845290915290205460ff166200016a5760008281526003602090815260408083206001600160a01b03851684529091529020805460ff19166001179055620001ce3390565b6001600160a01b0316816001600160a01b0316837f2f8788117e7eff1d82e926ec794901d17c78024a50270940304540a733656f0d60405160405180910390a45050565b600082815260036020526040808220600101805490849055905190918391839186917fbd79b86ffe0ab8e8776151514217cd7cacd52c909f66475c3af44e129f0b00ff9190a4505050565b8280546200026b9062000439565b90600052602060002090601f0160209004810192826200028f5760008555620002da565b82601f10620002aa57805160ff1916838001178555620002da565b82800160010185558215620002da579182015b82811115620002da578251825591602001919060010190620002bd565b50620002e8929150620002ec565b5090565b5b80821115620002e85760008155600101620002ed565b634e487b7160e01b600052604160045260246000fd5b80516001600160a01b03811681146200033157600080fd5b919050565b6000806000606084860312156200034c57600080fd5b83516001600160401b03808211156200036457600080fd5b818601915086601f8301126200037957600080fd5b8151818111156200038e576200038e62000303565b604051601f8201601f19908116603f01168101908382118183101715620003b957620003b962000303565b81604052828152602093508984848701011115620003d657600080fd5b600091505b82821015620003fa5784820184015181830185015290830190620003db565b828211156200040c5760008484830101525b96506200041e91505086820162000319565b93505050620004306040850162000319565b90509250925092565b600181811c908216806200044e57607f821691505b6020821081036200046f57634e487b7160e01b600052602260045260246000fd5b50919050565b61250d80620004856000396000f3fe608060405234801561001057600080fd5b50600436106101415760003560e01c80634f558e79116100b8578063a22cb4651161007c578063a22cb465146102ab578063b9220a74146102be578063bd85b039146102de578063d547741f146102fe578063e985e9c514610311578063f242432a1461034d57600080fd5b80634f558e791461025b5780635c975abb1461027d5780638456cb591461028857806391d1485414610290578063a217fddf146102a357600080fd5b80632eb2c2d61161010a5780632eb2c2d6146101e75780632f2ff15d146101fa57806336568abe1461020d5780633f4ba83a146102205780634cd1db78146102285780634e1273f41461023b57600080fd5b8062fdd58e1461014657806301ffc9a71461016c57806302fe53051461018f5780630e89341c146101a4578063248a9ca3146101c4575b600080fd5b610159610154366004611b15565b610360565b6040519081526020015b60405180910390f35b61017f61017a366004611b55565b6103f7565b6040519015158152602001610163565b6101a261019d366004611c13565b610428565b005b6101b76101b2366004611c64565b610460565b6040516101639190611cd5565b6101596101d2366004611c64565b60009081526003602052604090206001015490565b6101a26101f5366004611d9d565b6104f4565b6101a2610208366004611e47565b61058b565b6101a261021b366004611e47565b6105b6565b6101a2610630565b610159610236366004611e73565b610666565b61024e610249366004611ebf565b6106f6565b6040516101639190611fc5565b61017f610269366004611c64565b600090815260046020526040902054151590565b60065460ff1661017f565b6101a2610820565b61017f61029e366004611e47565b610853565b610159600081565b6101a26102b9366004611fd8565b61087e565b6102d16102cc366004611c64565b610889565b6040516101639190612061565b6101596102ec366004611c64565b60009081526004602052604090205490565b6101a261030c366004611e47565b610918565b61017f61031f366004612074565b6001600160a01b03918216600090815260016020908152604080832093909416825291909152205460ff1690565b6101a261035b36600461209e565b61093e565b60006001600160a01b0383166103d15760405162461bcd60e51b815260206004820152602b60248201527f455243313135353a2062616c616e636520717565727920666f7220746865207a60448201526a65726f206164647265737360a81b60648201526084015b60405180910390fd5b506000908152602081815260408083206001600160a01b03949094168352929052205490565b60006311b77d6360e21b6001600160e01b031983160161041957506001919050565b610422826109c5565b92915050565b7ffddb143be89620896ce3745ceb136fd672c98dea954adb8724dcfae9dc08796d61045381336109ea565b61045c82610a4e565b5050565b60606002805461046f90612103565b80601f016020809104026020016040519081016040528092919081815260200182805461049b90612103565b80156104e85780601f106104bd576101008083540402835291602001916104e8565b820191906000526020600020905b8154815290600101906020018083116104cb57829003601f168201915b50505050509050919050565b6001600160a01b0385163314806105105750610510853361031f565b6105775760405162461bcd60e51b815260206004820152603260248201527f455243313135353a207472616e736665722063616c6c6572206973206e6f74206044820152711bdddb995c881b9bdc88185c1c1c9bdd995960721b60648201526084016103c8565b6105848585858585610a61565b5050505050565b6000828152600360205260409020600101546105a781336109ea565b6105b18383610c4c565b505050565b6001600160a01b03811633146106265760405162461bcd60e51b815260206004820152602f60248201527f416363657373436f6e74726f6c3a2063616e206f6e6c792072656e6f756e636560448201526e103937b632b9903337b91039b2b63360891b60648201526084016103c8565b61045c8282610cd2565b7fad0f4d923b26df99ed90553d189d268443625c1ce82a268b2504301f2900d26861065b81336109ea565b610663610d39565b50565b60007f8ccbc2c0141407af8e533e0caeae8e08f837db7ce5bf08ab977e0c83af5622a461069381336109ea565b6106a1600780546001019055565b60006106ac60075490565b90506106b9818786610dcc565b6106d486828760405180602001604052806000815250610e80565b6008546106ed9087906001600160a01b03166001610f90565b95945050505050565b6060815183511461075b5760405162461bcd60e51b815260206004820152602960248201527f455243313135353a206163636f756e747320616e6420696473206c656e677468604482015268040dad2e6dac2e8c6d60bb1b60648201526084016103c8565b6000835167ffffffffffffffff81111561077757610777611b72565b6040519080825280602002602001820160405280156107a0578160200160208202803683370190505b50905060005b8451811015610818576107eb8582815181106107c4576107c461213d565b60200260200101518583815181106107de576107de61213d565b6020026020010151610360565b8282815181106107fd576107fd61213d565b602090810291909101015261081181612169565b90506107a6565b509392505050565b7fad0f4d923b26df99ed90553d189d268443625c1ce82a268b2504301f2900d26861084b81336109ea565b610663611070565b60009182526003602090815260408084206001600160a01b0393909316845291905290205460ff1690565b61045c338383610f90565b606060056000838152602001908152602001600020805480602002602001604051908101604052809291908181526020016000905b8282101561090d57600084815260209081902060408051808201909152908401546001600160a01b0381168252600160a01b90046001600160601b0316818301528252600190920191016108be565b505050509050919050565b60008281526003602052604090206001015461093481336109ea565b6105b18383610cd2565b6001600160a01b03851633148061095a575061095a853361031f565b6109b85760405162461bcd60e51b815260206004820152602960248201527f455243313135353a2063616c6c6572206973206e6f74206f776e6572206e6f7260448201526808185c1c1c9bdd995960ba1b60648201526084016103c8565b61058485858585856110eb565b60006001600160e01b03198216637965db0b60e01b1480610422575061042282611208565b6109f48282610853565b61045c57610a0c816001600160a01b03166014611258565b610a17836020611258565b604051602001610a28929190612182565b60408051601f198184030181529082905262461bcd60e51b82526103c891600401611cd5565b805161045c906002906020840190611a60565b8151835114610ac35760405162461bcd60e51b815260206004820152602860248201527f455243313135353a2069647320616e6420616d6f756e7473206c656e677468206044820152670dad2e6dac2e8c6d60c31b60648201526084016103c8565b6001600160a01b038416610ae95760405162461bcd60e51b81526004016103c8906121f7565b33610af88187878787876113fb565b60005b8451811015610bde576000858281518110610b1857610b1861213d565b602002602001015190506000858381518110610b3657610b3661213d565b602090810291909101810151600084815280835260408082206001600160a01b038e168352909352919091205490915081811015610b865760405162461bcd60e51b81526004016103c89061223c565b6000838152602081815260408083206001600160a01b038e8116855292528083208585039055908b16825281208054849290610bc3908490612286565b9250508190555050505080610bd790612169565b9050610afb565b50846001600160a01b0316866001600160a01b0316826001600160a01b03167f4a39dc06d4c0dbc64b70af90fd698a233a518aa5d07e595d983b8c0526c8f7fb8787604051610c2e92919061229e565b60405180910390a4610c4481878787878761144f565b505050505050565b610c568282610853565b61045c5760008281526003602090815260408083206001600160a01b03851684529091529020805460ff19166001179055610c8e3390565b6001600160a01b0316816001600160a01b0316837f2f8788117e7eff1d82e926ec794901d17c78024a50270940304540a733656f0d60405160405180910390a45050565b610cdc8282610853565b1561045c5760008281526003602090815260408083206001600160a01b0385168085529252808320805460ff1916905551339285917ff6391f5c32d9c69d2a47ea670b442974b53935d1edc7fd64eb21e047a839171b9190a45050565b60065460ff16610d825760405162461bcd60e51b815260206004820152601460248201527314185d5cd8589b194e881b9bdd081c185d5cd95960621b60448201526064016103c8565b6006805460ff191690557f5db9ee0a495bf2e6ff9c91a7834c1ba4fdd244a5e8aa4e537bd38aeae4b073aa335b6040516001600160a01b03909116815260200160405180910390a1565b604080516001808252818301909252600091816020015b6040805180820190915260008082526020820152815260200190600190039081610de35790505090508181600081518110610e2057610e2061213d565b6020026020010151602001906001600160601b031690816001600160601b0316815250508281600081518110610e5857610e5861213d565b60209081029190910101516001600160a01b039091169052610e7a84826115aa565b50505050565b6001600160a01b038416610ee05760405162461bcd60e51b815260206004820152602160248201527f455243313135353a206d696e7420746f20746865207a65726f206164647265736044820152607360f81b60648201526084016103c8565b33610f0081600087610ef188611811565b610efa88611811565b876113fb565b6000848152602081815260408083206001600160a01b038916845290915281208054859290610f30908490612286565b909155505060408051858152602081018590526001600160a01b0380881692600092918516917fc3d58168c5ae7397731d063d5bbf3d657854427343f4c083240f7aacaa2d0f62910160405180910390a46105848160008787878761185c565b816001600160a01b0316836001600160a01b0316036110035760405162461bcd60e51b815260206004820152602960248201527f455243313135353a2073657474696e6720617070726f76616c20737461747573604482015268103337b91039b2b63360b91b60648201526084016103c8565b6001600160a01b03838116600081815260016020908152604080832094871680845294825291829020805460ff191686151590811790915591519182527f17307eab39ab6107e8899845ad3d59bd9653f200f220920489ca2b5937696c31910160405180910390a3505050565b60065460ff16156110b65760405162461bcd60e51b815260206004820152601060248201526f14185d5cd8589b194e881c185d5cd95960821b60448201526064016103c8565b6006805460ff191660011790557f62e78cea01bee320cd4e420270b5ea74000d11b0c9f74754ebdbfc544b05a258610daf3390565b6001600160a01b0384166111115760405162461bcd60e51b81526004016103c8906121f7565b33611121818787610ef188611811565b6000848152602081815260408083206001600160a01b038a168452909152902054838110156111625760405162461bcd60e51b81526004016103c89061223c565b6000858152602081815260408083206001600160a01b038b811685529252808320878503905590881682528120805486929061119f908490612286565b909155505060408051868152602081018690526001600160a01b03808916928a821692918616917fc3d58168c5ae7397731d063d5bbf3d657854427343f4c083240f7aacaa2d0f62910160405180910390a46111ff82888888888861185c565b50505050505050565b60006001600160e01b03198216636cdb3d1360e11b148061123957506001600160e01b031982166303a24d0760e21b145b8061042257506301ffc9a760e01b6001600160e01b0319831614610422565b606060006112678360026122c3565b611272906002612286565b67ffffffffffffffff81111561128a5761128a611b72565b6040519080825280601f01601f1916602001820160405280156112b4576020820181803683370190505b509050600360fc1b816000815181106112cf576112cf61213d565b60200101906001600160f81b031916908160001a905350600f60fb1b816001815181106112fe576112fe61213d565b60200101906001600160f81b031916908160001a90535060006113228460026122c3565b61132d906001612286565b90505b60018111156113a5576f181899199a1a9b1b9c1cb0b131b232b360811b85600f16601081106113615761136161213d565b1a60f81b8282815181106113775761137761213d565b60200101906001600160f81b031916908160001a90535060049490941c9361139e816122e2565b9050611330565b5083156113f45760405162461bcd60e51b815260206004820181905260248201527f537472696e67733a20686578206c656e67746820696e73756666696369656e7460448201526064016103c8565b9392505050565b60065460ff16156114415760405162461bcd60e51b815260206004820152601060248201526f14185d5cd8589b194e881c185d5cd95960821b60448201526064016103c8565b610c44868686868686611917565b6001600160a01b0384163b15610c445760405163bc197c8160e01b81526001600160a01b0385169063bc197c819061149390899089908890889088906004016122f9565b6020604051808303816000875af19250505080156114ce575060408051601f3d908101601f191682019092526114cb91810190612357565b60015b61157a576114da612374565b806308c379a00361151357506114ee612390565b806114f95750611515565b8060405162461bcd60e51b81526004016103c89190611cd5565b505b60405162461bcd60e51b815260206004820152603460248201527f455243313135353a207472616e7366657220746f206e6f6e20455243313135356044820152732932b1b2b4bb32b91034b6b83632b6b2b73a32b960611b60648201526084016103c8565b6001600160e01b0319811663bc197c8160e01b146111ff5760405162461bcd60e51b81526004016103c89061241a565b6000805b825181101561178e5760006001600160a01b03168382815181106115d4576115d461213d565b6020026020010151600001516001600160a01b03160361164e5760405162461bcd60e51b815260206004820152602f60248201527f486569726c6f6f6d20526f79616c746965733a20526563697069656e7420736860448201526e1bdd5b19081899481c1c995cd95b9d608a1b60648201526084016103c8565b8281815181106116605761166061213d565b6020026020010151602001516001600160601b03166000036116e15760405162461bcd60e51b815260206004820152603460248201527f486569726c6f6f6d20526f79616c746965733a20526f79616c74792076616c75604482015273652073686f756c6420626520706f73697469766560601b60648201526084016103c8565b8281815181106116f3576116f361213d565b6020026020010151602001516001600160601b0316826117139190612286565b91506005600085815260200190815260200160002083828151811061173a5761173a61213d565b6020908102919091018101518254600181018455600093845292829020815191909201516001600160601b0316600160a01b026001600160a01b03909116179101558061178681612169565b9150506115ae565b506103e88111156118075760405162461bcd60e51b815260206004820152603960248201527f486569726c6f6f6d20526f79616c746965733a20526f79616c747920746f746160448201527f6c2076616c75652073686f756c64206265203c3d20313030300000000000000060648201526084016103c8565b6105b18383611a23565b6040805160018082528183019092526060916000919060208083019080368337019050509050828160008151811061184b5761184b61213d565b602090810291909101015292915050565b6001600160a01b0384163b15610c445760405163f23a6e6160e01b81526001600160a01b0385169063f23a6e61906118a09089908990889088908890600401612462565b6020604051808303816000875af19250505080156118db575060408051601f3d908101601f191682019092526118d891810190612357565b60015b6118e7576114da612374565b6001600160e01b0319811663f23a6e6160e01b146111ff5760405162461bcd60e51b81526004016103c89061241a565b6001600160a01b03851661199e5760005b835181101561199c578281815181106119435761194361213d565b6020026020010151600460008684815181106119615761196161213d565b6020026020010151815260200190815260200160002060008282546119869190612286565b90915550611995905081612169565b9050611928565b505b6001600160a01b038416610c445760005b83518110156111ff578281815181106119ca576119ca61213d565b6020026020010151600460008684815181106119e8576119e861213d565b602002602001015181526020019081526020016000206000828254611a0d91906124a7565b90915550611a1c905081612169565b90506119af565b7f3fa96d7b6bcbfe71ef171666d84db3cf52fa2d1c8afdb1cc8e486177f208b7df8282604051611a549291906124be565b60405180910390a15050565b828054611a6c90612103565b90600052602060002090601f016020900481019282611a8e5760008555611ad4565b82601f10611aa757805160ff1916838001178555611ad4565b82800160010185558215611ad4579182015b82811115611ad4578251825591602001919060010190611ab9565b50611ae0929150611ae4565b5090565b5b80821115611ae05760008155600101611ae5565b80356001600160a01b0381168114611b1057600080fd5b919050565b60008060408385031215611b2857600080fd5b611b3183611af9565b946020939093013593505050565b6001600160e01b03198116811461066357600080fd5b600060208284031215611b6757600080fd5b81356113f481611b3f565b634e487b7160e01b600052604160045260246000fd5b601f8201601f1916810167ffffffffffffffff81118282101715611bae57611bae611b72565b6040525050565b600067ffffffffffffffff831115611bcf57611bcf611b72565b604051611be6601f8501601f191660200182611b88565b809150838152848484011115611bfb57600080fd5b83836020830137600060208583010152509392505050565b600060208284031215611c2557600080fd5b813567ffffffffffffffff811115611c3c57600080fd5b8201601f81018413611c4d57600080fd5b611c5c84823560208401611bb5565b949350505050565b600060208284031215611c7657600080fd5b5035919050565b60005b83811015611c98578181015183820152602001611c80565b83811115610e7a5750506000910152565b60008151808452611cc1816020860160208601611c7d565b601f01601f19169290920160200192915050565b6020815260006113f46020830184611ca9565b600067ffffffffffffffff821115611d0257611d02611b72565b5060051b60200190565b600082601f830112611d1d57600080fd5b81356020611d2a82611ce8565b604051611d378282611b88565b83815260059390931b8501820192828101915086841115611d5757600080fd5b8286015b84811015611d725780358352918301918301611d5b565b509695505050505050565b600082601f830112611d8e57600080fd5b6113f483833560208501611bb5565b600080600080600060a08688031215611db557600080fd5b611dbe86611af9565b9450611dcc60208701611af9565b9350604086013567ffffffffffffffff80821115611de957600080fd5b611df589838a01611d0c565b94506060880135915080821115611e0b57600080fd5b611e1789838a01611d0c565b93506080880135915080821115611e2d57600080fd5b50611e3a88828901611d7d565b9150509295509295909350565b60008060408385031215611e5a57600080fd5b82359150611e6a60208401611af9565b90509250929050565b600080600060608486031215611e8857600080fd5b611e9184611af9565b92506020840135915060408401356001600160601b0381168114611eb457600080fd5b809150509250925092565b60008060408385031215611ed257600080fd5b823567ffffffffffffffff80821115611eea57600080fd5b818501915085601f830112611efe57600080fd5b81356020611f0b82611ce8565b604051611f188282611b88565b83815260059390931b8501820192828101915089841115611f3857600080fd5b948201945b83861015611f5d57611f4e86611af9565b82529482019490820190611f3d565b96505086013592505080821115611f7357600080fd5b50611f8085828601611d0c565b9150509250929050565b600081518084526020808501945080840160005b83811015611fba57815187529582019590820190600101611f9e565b509495945050505050565b6020815260006113f46020830184611f8a565b60008060408385031215611feb57600080fd5b611ff483611af9565b91506020830135801515811461200957600080fd5b809150509250929050565b600081518084526020808501945080840160005b83811015611fba57815180516001600160a01b031688528301516001600160601b03168388015260409096019590820190600101612028565b6020815260006113f46020830184612014565b6000806040838503121561208757600080fd5b61209083611af9565b9150611e6a60208401611af9565b600080600080600060a086880312156120b657600080fd5b6120bf86611af9565b94506120cd60208701611af9565b93506040860135925060608601359150608086013567ffffffffffffffff8111156120f757600080fd5b611e3a88828901611d7d565b600181811c9082168061211757607f821691505b60208210810361213757634e487b7160e01b600052602260045260246000fd5b50919050565b634e487b7160e01b600052603260045260246000fd5b634e487b7160e01b600052601160045260246000fd5b60006001820161217b5761217b612153565b5060010190565b7f416363657373436f6e74726f6c3a206163636f756e74200000000000000000008152600083516121ba816017850160208801611c7d565b7001034b99036b4b9b9b4b733903937b6329607d1b60179184019182015283516121eb816028840160208801611c7d565b01602801949350505050565b60208082526025908201527f455243313135353a207472616e7366657220746f20746865207a65726f206164604082015264647265737360d81b606082015260800190565b6020808252602a908201527f455243313135353a20696e73756666696369656e742062616c616e636520666f60408201526939103a3930b739b332b960b11b606082015260800190565b6000821982111561229957612299612153565b500190565b6040815260006122b16040830185611f8a565b82810360208401526106ed8185611f8a565b60008160001904831182151516156122dd576122dd612153565b500290565b6000816122f1576122f1612153565b506000190190565b6001600160a01b0386811682528516602082015260a06040820181905260009061232590830186611f8a565b82810360608401526123378186611f8a565b9050828103608084015261234b8185611ca9565b98975050505050505050565b60006020828403121561236957600080fd5b81516113f481611b3f565b600060033d111561238d5760046000803e5060005160e01c5b90565b600060443d101561239e5790565b6040516003193d81016004833e81513d67ffffffffffffffff81602484011181841117156123ce57505050505090565b82850191508151818111156123e65750505050505090565b843d87010160208285010111156124005750505050505090565b61240f60208286010187611b88565b509095945050505050565b60208082526028908201527f455243313135353a204552433131353552656365697665722072656a656374656040820152676420746f6b656e7360c01b606082015260800190565b6001600160a01b03868116825285166020820152604081018490526060810183905260a06080820181905260009061249c90830184611ca9565b979650505050505050565b6000828210156124b9576124b9612153565b500390565b828152604060208201526000611c5c604083018461201456fea2646970667358221220739c23e64627eefa74f5d60c21abbd915454bdc7fbb9e79765d6a26a2c45452064736f6c634300080d0033fddb143be89620896ce3745ceb136fd672c98dea954adb8724dcfae9dc08796d8ccbc2c0141407af8e533e0caeae8e08f837db7ce5bf08ab977e0c83af5622a4",
  "immutableReferences": {},
  "source": "// SPDX-License-Identifier: MIT\r\npragma solidity ^0.8.4;\r\npragma abicoder v2;\r\n\r\nimport \"@openzeppelin/contracts/token/ERC1155/ERC1155.sol\";\r\nimport \"@openzeppelin/contracts/access/AccessControl.sol\";\r\nimport \"@openzeppelin/contracts/security/Pausable.sol\";\r\nimport \"@openzeppelin/contracts/token/ERC1155/extensions/ERC1155Supply.sol\";\r\nimport \"@openzeppelin/contracts/token/ERC1155/ERC1155.sol\";\r\nimport '@openzeppelin/contracts/utils/Counters.sol';\r\nimport '../utils/Constants.sol';\r\n\r\nimport '../royalties/HeirloomRoyaltiesV1.sol';\r\nimport '../libs/LibPart.sol';\r\nimport '../libs/LibHeirloomRoyaltiesV1.sol';\r\n\r\n\r\ncontract HeirloomLicenseNFT is ERC1155, AccessControl, ERC1155Supply, HeirloomRoyaltiesV1, Pausable, Constants {\r\n    \r\n    using Counters for Counters.Counter;\r\n    Counters.Counter private _tokenIds; \r\n    address private _marketoperator;\r\n\r\n    constructor(string memory baseTokenUri, address operator, address admin) ERC1155(baseTokenUri) {\r\n        _grantRole(MINTER_ROLE, operator);\r\n        _grantRole(ADMIN_ROLE, admin);\r\n        _grantRole(PAUSER_ROLE, admin);\r\n        _setRoleAdmin(PAUSER_ROLE, ADMIN_ROLE);\r\n        _setRoleAdmin(MINTER_ROLE, ADMIN_ROLE);\r\n        _setRoleAdmin(ADMIN_ROLE, ADMIN_ROLE);\r\n        _marketoperator = operator;\r\n    }\r\n\r\n    function setURI(string memory newuri) public onlyRole(ADMIN_ROLE) {\r\n        _setURI(newuri);\r\n    }\r\n\r\n    function pause() public onlyRole(PAUSER_ROLE) {\r\n        _pause();\r\n    }\r\n\r\n    function unpause() public onlyRole(PAUSER_ROLE) {\r\n        _unpause();\r\n    }\r\n\r\n    /**\r\n        @notice creates a saas license\r\n        @param account creator of the license subscription\r\n        @param maxSupply the max supply of the license \r\n    */\r\n    function createLicense(address account, uint256 maxSupply, uint96 rbp) public\r\n    onlyRole(MINTER_ROLE) returns (uint256){\r\n        _tokenIds.increment();\r\n        uint256 tokenId = _tokenIds.current();\r\n        _setRoyalties(tokenId, account, rbp);\r\n        _mint(account, tokenId, maxSupply, \"\");\r\n        _setApprovalForAll(account, _marketoperator, true);\r\n        return tokenId;\r\n    }\r\n\r\n    function _beforeTokenTransfer(address operator, address from, address to, uint256[] memory ids, uint256[] memory amounts, bytes memory data)\r\n        internal\r\n        whenNotPaused\r\n        override(ERC1155, ERC1155Supply)\r\n    {\r\n        super._beforeTokenTransfer(operator, from, to, ids, amounts, data);\r\n    }\r\n\r\n    function supportsInterface(bytes4 interfaceId)\r\n        public\r\n        view\r\n        override(ERC1155, AccessControl)\r\n        returns (bool)\r\n    {\r\n        if(interfaceId == LibHeirloomRoyaltiesV1._INTERFACE_ID_ROYALTIES){\r\n            return true;\r\n        }\r\n        return super.supportsInterface(interfaceId);\r\n    }\r\n\r\n    function _setRoyalties(uint256 tokenId, address royaltiesRecipient, uint96 rbp) private {\r\n        LibPart.Part[] memory _royalties = new LibPart.Part[](1);\r\n        _royalties[0].value = rbp;\r\n        _royalties[0].account =  payable(royaltiesRecipient);\r\n        _saveRoyalties(tokenId, _royalties);\r\n    }\r\n    \r\n}\r\n",
  "sourcePath": "D:\\work\\heirloom\\src\\contracts\\contracts\\erc1155\\HeirloomLicenseNFT.sol",
  "compiler": {
    "name": "solc",
    "version": "0.8.13+commit.abaa5c0e.Emscripten.clang"
  },
  "schemaVersion": "3.4.7",
  "updatedAt": "2022-04-17T09:59:35.219Z",
  "networkType": "ethereum",
  "devdoc": {
    "kind": "dev",
    "methods": {
      "balanceOf(address,uint256)": {
        "details": "See {IERC1155-balanceOf}. Requirements: - `account` cannot be the zero address."
      },
      "balanceOfBatch(address[],uint256[])": {
        "details": "See {IERC1155-balanceOfBatch}. Requirements: - `accounts` and `ids` must have the same length."
      },
      "createLicense(address,uint256,uint96)": {
        "params": {
          "account": "creator of the license subscription",
          "maxSupply": "the max supply of the license "
        }
      },
      "exists(uint256)": {
        "details": "Indicates whether any token exist with a given id, or not."
      },
      "getRoleAdmin(bytes32)": {
        "details": "Returns the admin role that controls `role`. See {grantRole} and {revokeRole}. To change a role's admin, use {_setRoleAdmin}."
      },
      "grantRole(bytes32,address)": {
        "details": "Grants `role` to `account`. If `account` had not been already granted `role`, emits a {RoleGranted} event. Requirements: - the caller must have ``role``'s admin role."
      },
      "hasRole(bytes32,address)": {
        "details": "Returns `true` if `account` has been granted `role`."
      },
      "isApprovedForAll(address,address)": {
        "details": "See {IERC1155-isApprovedForAll}."
      },
      "paused()": {
        "details": "Returns true if the contract is paused, and false otherwise."
      },
      "renounceRole(bytes32,address)": {
        "details": "Revokes `role` from the calling account. Roles are often managed via {grantRole} and {revokeRole}: this function's purpose is to provide a mechanism for accounts to lose their privileges if they are compromised (such as when a trusted device is misplaced). If the calling account had been revoked `role`, emits a {RoleRevoked} event. Requirements: - the caller must be `account`."
      },
      "revokeRole(bytes32,address)": {
        "details": "Revokes `role` from `account`. If `account` had been granted `role`, emits a {RoleRevoked} event. Requirements: - the caller must have ``role``'s admin role."
      },
      "safeBatchTransferFrom(address,address,uint256[],uint256[],bytes)": {
        "details": "See {IERC1155-safeBatchTransferFrom}."
      },
      "safeTransferFrom(address,address,uint256,uint256,bytes)": {
        "details": "See {IERC1155-safeTransferFrom}."
      },
      "setApprovalForAll(address,bool)": {
        "details": "See {IERC1155-setApprovalForAll}."
      },
      "totalSupply(uint256)": {
        "details": "Total amount of tokens in with a given id."
      },
      "uri(uint256)": {
        "details": "See {IERC1155MetadataURI-uri}. This implementation returns the same URI for *all* token types. It relies on the token type ID substitution mechanism https://eips.ethereum.org/EIPS/eip-1155#metadata[defined in the EIP]. Clients calling this function must replace the `\\{id\\}` substring with the actual token type ID."
      }
    },
    "version": 1
  },
  "userdoc": {
    "kind": "user",
    "methods": {
      "createLicense(address,uint256,uint96)": {
        "notice": "creates a saas license"
      }
    },
    "version": 1
  }
}