{
  "contractName": "HeirloomRoyaltiesV1",
  "abi": [
    {
      "anonymous": false,
      "inputs": [
        {
          "indexed": false,
          "internalType": "uint256",
          "name": "tokenId",
          "type": "uint256"
        },
        {
          "components": [
            {
              "internalType": "address payable",
              "name": "account",
              "type": "address"
            },
            {
              "internalType": "uint96",
              "name": "value",
              "type": "uint96"
            }
          ],
          "indexed": false,
          "internalType": "struct LibPart.Part[]",
          "name": "royalties",
          "type": "tuple[]"
        }
      ],
      "name": "RoyaltiesSet",
      "type": "event"
    },
    {
      "inputs": [
        {
          "internalType": "uint256",
          "name": "id",
          "type": "uint256"
        }
      ],
      "name": "getHeirloomV1Royalties",
      "outputs": [
        {
          "components": [
            {
              "internalType": "address payable",
              "name": "account",
              "type": "address"
            },
            {
              "internalType": "uint96",
              "name": "value",
              "type": "uint96"
            }
          ],
          "internalType": "struct LibPart.Part[]",
          "name": "",
          "type": "tuple[]"
        }
      ],
      "stateMutability": "view",
      "type": "function"
    }
  ],
  "bytecode": "0x608060405234801561001057600080fd5b50610199806100206000396000f3fe608060405234801561001057600080fd5b506004361061002b5760003560e01c8063b9220a7414610030575b600080fd5b61004361003e3660046100e4565b610059565b60405161005091906100fd565b60405180910390f35b600081815260208181526040808320805482518185028101850190935280835260609492939192909184015b828210156100d957600084815260209081902060408051808201909152908401546001600160a01b0381168252600160a01b90046bffffffffffffffffffffffff1681830152825260019092019101610085565b505050509050919050565b6000602082840312156100f657600080fd5b5035919050565b602080825282518282018190526000919060409081850190868401855b8281101561015657815180516001600160a01b031685528601516bffffffffffffffffffffffff1686850152928401929085019060010161011a565b509197965050505050505056fea2646970667358221220f021a35822f3578afe62f1afaf898ddd19ff83bf4ec5486fd7c040eae010642e64736f6c634300080d0033",
  "immutableReferences": {},
  "source": "// SPDX-License-Identifier: MIT\r\npragma solidity ^0.8.4;\r\n\r\nimport \"./AbstractHeirloomRoyaltiesV1.sol\";\r\nimport \"../interfaces/IHeirloomRoyaltiesV1.sol\";\r\n\r\ncontract HeirloomRoyaltiesV1 is AbstractHeirloomRoyaltiesV1, IHeirloomRoyaltiesV1 {\r\n\r\n    function getHeirloomV1Royalties(uint256 id) override external view returns (LibPart.Part[] memory) {\r\n        return royalties[id];\r\n    }\r\n\r\n    function _onRoyaltiesSet(uint256 id, LibPart.Part[] memory _royalties) override internal {\r\n        emit RoyaltiesSet(id, _royalties);\r\n    }\r\n}\r\n",
  "sourcePath": "D:\\work\\heirloom\\src\\contracts\\contracts\\royalties\\HeirloomRoyaltiesV1.sol",
  "compiler": {
    "name": "solc",
    "version": "0.8.13+commit.abaa5c0e.Emscripten.clang"
  },
  "schemaVersion": "3.4.7",
  "updatedAt": "2022-04-17T09:59:31.386Z",
  "devdoc": {
    "kind": "dev",
    "methods": {},
    "version": 1
  },
  "userdoc": {
    "kind": "user",
    "methods": {},
    "version": 1
  }
}