{
  "contractName": "HeirloomMarketplace",
  "abi": [
    {
      "inputs": [
        {
          "internalType": "address",
          "name": "admin",
          "type": "address"
        },
        {
          "internalType": "uint256",
          "name": "listingFee",
          "type": "uint256"
        },
        {
          "internalType": "address",
          "name": "hilo",
          "type": "address"
        },
        {
          "internalType": "address",
          "name": "treasury",
          "type": "address"
        },
        {
          "internalType": "address",
          "name": "escrow",
          "type": "address"
        }
      ],
      "stateMutability": "nonpayable",
      "type": "constructor"
    },
    {
      "anonymous": false,
      "inputs": [
        {
          "indexed": true,
          "internalType": "uint256",
          "name": "saleId",
          "type": "uint256"
        },
        {
          "indexed": true,
          "internalType": "uint256",
          "name": "tokenId",
          "type": "uint256"
        },
        {
          "indexed": false,
          "internalType": "address",
          "name": "buyer",
          "type": "address"
        },
        {
          "indexed": false,
          "internalType": "uint256",
          "name": "amount",
          "type": "uint256"
        }
      ],
      "name": "BoughtFromSale",
      "type": "event"
    },
    {
      "anonymous": false,
      "inputs": [
        {
          "indexed": true,
          "internalType": "uint256",
          "name": "licenseId",
          "type": "uint256"
        },
        {
          "indexed": false,
          "internalType": "address",
          "name": "seller",
          "type": "address"
        },
        {
          "indexed": true,
          "internalType": "bool",
          "name": "closed",
          "type": "bool"
        }
      ],
      "name": "LicenseItemClosed",
      "type": "event"
    },
    {
      "anonymous": false,
      "inputs": [
        {
          "indexed": true,
          "internalType": "uint256",
          "name": "licenseId",
          "type": "uint256"
        },
        {
          "indexed": true,
          "internalType": "uint256",
          "name": "tokenId",
          "type": "uint256"
        },
        {
          "indexed": false,
          "internalType": "address",
          "name": "seller",
          "type": "address"
        },
        {
          "indexed": false,
          "internalType": "uint256",
          "name": "price",
          "type": "uint256"
        },
        {
          "indexed": false,
          "internalType": "uint256",
          "name": "amount",
          "type": "uint256"
        }
      ],
      "name": "LicenseListed",
      "type": "event"
    },
    {
      "anonymous": false,
      "inputs": [
        {
          "indexed": true,
          "internalType": "uint256",
          "name": "itemId",
          "type": "uint256"
        },
        {
          "indexed": true,
          "internalType": "uint256",
          "name": "tokenId",
          "type": "uint256"
        },
        {
          "indexed": false,
          "internalType": "address",
          "name": "seller",
          "type": "address"
        },
        {
          "indexed": false,
          "internalType": "address",
          "name": "buyer",
          "type": "address"
        },
        {
          "indexed": false,
          "internalType": "uint256",
          "name": "amount",
          "type": "uint256"
        },
        {
          "indexed": false,
          "internalType": "uint256",
          "name": "price",
          "type": "uint256"
        }
      ],
      "name": "LicenseSold",
      "type": "event"
    },
    {
      "anonymous": false,
      "inputs": [
        {
          "indexed": true,
          "internalType": "bytes32",
          "name": "role",
          "type": "bytes32"
        },
        {
          "indexed": true,
          "internalType": "bytes32",
          "name": "previousAdminRole",
          "type": "bytes32"
        },
        {
          "indexed": true,
          "internalType": "bytes32",
          "name": "newAdminRole",
          "type": "bytes32"
        }
      ],
      "name": "RoleAdminChanged",
      "type": "event"
    },
    {
      "anonymous": false,
      "inputs": [
        {
          "indexed": true,
          "internalType": "bytes32",
          "name": "role",
          "type": "bytes32"
        },
        {
          "indexed": true,
          "internalType": "address",
          "name": "account",
          "type": "address"
        },
        {
          "indexed": true,
          "internalType": "address",
          "name": "sender",
          "type": "address"
        }
      ],
      "name": "RoleGranted",
      "type": "event"
    },
    {
      "anonymous": false,
      "inputs": [
        {
          "indexed": true,
          "internalType": "bytes32",
          "name": "role",
          "type": "bytes32"
        },
        {
          "indexed": true,
          "internalType": "address",
          "name": "account",
          "type": "address"
        },
        {
          "indexed": true,
          "internalType": "address",
          "name": "sender",
          "type": "address"
        }
      ],
      "name": "RoleRevoked",
      "type": "event"
    },
    {
      "anonymous": false,
      "inputs": [
        {
          "indexed": true,
          "internalType": "uint256",
          "name": "SaleId",
          "type": "uint256"
        }
      ],
      "name": "SaleClosed",
      "type": "event"
    },
    {
      "anonymous": false,
      "inputs": [
        {
          "indexed": true,
          "internalType": "address",
          "name": "provider",
          "type": "address"
        },
        {
          "indexed": true,
          "internalType": "uint256",
          "name": "saleId",
          "type": "uint256"
        }
      ],
      "name": "SaleCreated",
      "type": "event"
    },
    {
      "inputs": [],
      "name": "DEFAULT_ADMIN_ROLE",
      "outputs": [
        {
          "internalType": "bytes32",
          "name": "",
          "type": "bytes32"
        }
      ],
      "stateMutability": "view",
      "type": "function",
      "constant": true
    },
    {
      "inputs": [],
      "name": "LISTING_FEE",
      "outputs": [
        {
          "internalType": "uint256",
          "name": "",
          "type": "uint256"
        }
      ],
      "stateMutability": "view",
      "type": "function",
      "constant": true
    },
    {
      "inputs": [
        {
          "internalType": "bytes32",
          "name": "role",
          "type": "bytes32"
        }
      ],
      "name": "getRoleAdmin",
      "outputs": [
        {
          "internalType": "bytes32",
          "name": "",
          "type": "bytes32"
        }
      ],
      "stateMutability": "view",
      "type": "function",
      "constant": true
    },
    {
      "inputs": [
        {
          "internalType": "bytes32",
          "name": "role",
          "type": "bytes32"
        },
        {
          "internalType": "address",
          "name": "account",
          "type": "address"
        }
      ],
      "name": "grantRole",
      "outputs": [],
      "stateMutability": "nonpayable",
      "type": "function"
    },
    {
      "inputs": [
        {
          "internalType": "bytes32",
          "name": "role",
          "type": "bytes32"
        },
        {
          "internalType": "address",
          "name": "account",
          "type": "address"
        }
      ],
      "name": "hasRole",
      "outputs": [
        {
          "internalType": "bool",
          "name": "",
          "type": "bool"
        }
      ],
      "stateMutability": "view",
      "type": "function",
      "constant": true
    },
    {
      "inputs": [
        {
          "internalType": "bytes32",
          "name": "role",
          "type": "bytes32"
        },
        {
          "internalType": "address",
          "name": "account",
          "type": "address"
        }
      ],
      "name": "renounceRole",
      "outputs": [],
      "stateMutability": "nonpayable",
      "type": "function"
    },
    {
      "inputs": [
        {
          "internalType": "bytes32",
          "name": "role",
          "type": "bytes32"
        },
        {
          "internalType": "address",
          "name": "account",
          "type": "address"
        }
      ],
      "name": "revokeRole",
      "outputs": [],
      "stateMutability": "nonpayable",
      "type": "function"
    },
    {
      "inputs": [
        {
          "internalType": "bytes4",
          "name": "interfaceId",
          "type": "bytes4"
        }
      ],
      "name": "supportsInterface",
      "outputs": [
        {
          "internalType": "bool",
          "name": "",
          "type": "bool"
        }
      ],
      "stateMutability": "view",
      "type": "function",
      "constant": true
    },
    {
      "inputs": [
        {
          "internalType": "uint256",
          "name": "newListingFee",
          "type": "uint256"
        }
      ],
      "name": "setListingFee",
      "outputs": [
        {
          "internalType": "uint256",
          "name": "",
          "type": "uint256"
        }
      ],
      "stateMutability": "nonpayable",
      "type": "function"
    },
    {
      "inputs": [
        {
          "internalType": "address",
          "name": "nftContract",
          "type": "address"
        },
        {
          "internalType": "uint256",
          "name": "maxSupply",
          "type": "uint256"
        },
        {
          "internalType": "address",
          "name": "refferer",
          "type": "address"
        },
        {
          "internalType": "uint256",
          "name": "start",
          "type": "uint256"
        },
        {
          "internalType": "uint256",
          "name": "duration",
          "type": "uint256"
        },
        {
          "internalType": "uint256",
          "name": "price",
          "type": "uint256"
        },
        {
          "internalType": "uint96",
          "name": "rbp",
          "type": "uint96"
        }
      ],
      "name": "createSale",
      "outputs": [
        {
          "internalType": "uint256",
          "name": "",
          "type": "uint256"
        }
      ],
      "stateMutability": "nonpayable",
      "type": "function"
    },
    {
      "inputs": [
        {
          "internalType": "address",
          "name": "nftContract",
          "type": "address"
        },
        {
          "internalType": "uint256",
          "name": "tokenId",
          "type": "uint256"
        },
        {
          "internalType": "uint256",
          "name": "price",
          "type": "uint256"
        },
        {
          "internalType": "uint256",
          "name": "amount",
          "type": "uint256"
        }
      ],
      "name": "listLicense",
      "outputs": [
        {
          "internalType": "uint256",
          "name": "",
          "type": "uint256"
        }
      ],
      "stateMutability": "nonpayable",
      "type": "function"
    },
    {
      "inputs": [
        {
          "internalType": "uint256",
          "name": "saleId",
          "type": "uint256"
        }
      ],
      "name": "forceCloseSale",
      "outputs": [],
      "stateMutability": "nonpayable",
      "type": "function"
    },
    {
      "inputs": [
        {
          "internalType": "uint256",
          "name": "saleId",
          "type": "uint256"
        },
        {
          "internalType": "uint256",
          "name": "amount",
          "type": "uint256"
        }
      ],
      "name": "participate",
      "outputs": [],
      "stateMutability": "nonpayable",
      "type": "function"
    },
    {
      "inputs": [],
      "name": "fetchListedLicenses",
      "outputs": [
        {
          "components": [
            {
              "internalType": "uint256",
              "name": "licenseId",
              "type": "uint256"
            },
            {
              "internalType": "uint256",
              "name": "tokenId",
              "type": "uint256"
            },
            {
              "internalType": "address",
              "name": "nftContract",
              "type": "address"
            },
            {
              "internalType": "address",
              "name": "seller",
              "type": "address"
            },
            {
              "internalType": "uint256",
              "name": "price",
              "type": "uint256"
            },
            {
              "internalType": "uint256",
              "name": "amount",
              "type": "uint256"
            },
            {
              "internalType": "bool",
              "name": "sold",
              "type": "bool"
            }
          ],
          "internalType": "struct IHeirloomMarketplace.LicenseItem[]",
          "name": "",
          "type": "tuple[]"
        }
      ],
      "stateMutability": "view",
      "type": "function",
      "constant": true
    },
    {
      "inputs": [],
      "name": "fetchActiveSales",
      "outputs": [
        {
          "components": [
            {
              "internalType": "uint256",
              "name": "saleId",
              "type": "uint256"
            },
            {
              "internalType": "address",
              "name": "licenseProvider",
              "type": "address"
            },
            {
              "internalType": "uint256",
              "name": "tokenId",
              "type": "uint256"
            },
            {
              "internalType": "address",
              "name": "nftContract",
              "type": "address"
            },
            {
              "internalType": "address",
              "name": "refferer",
              "type": "address"
            },
            {
              "internalType": "uint256",
              "name": "soldLicenses",
              "type": "uint256"
            },
            {
              "internalType": "uint256",
              "name": "maxSupply",
              "type": "uint256"
            },
            {
              "internalType": "uint256",
              "name": "start",
              "type": "uint256"
            },
            {
              "internalType": "uint256",
              "name": "duration",
              "type": "uint256"
            },
            {
              "internalType": "uint256",
              "name": "price",
              "type": "uint256"
            },
            {
              "internalType": "bool",
              "name": "active",
              "type": "bool"
            }
          ],
          "internalType": "struct IHeirloomMarketplace.SaleItem[]",
          "name": "",
          "type": "tuple[]"
        }
      ],
      "stateMutability": "view",
      "type": "function",
      "constant": true
    },
    {
      "inputs": [
        {
          "internalType": "uint256",
          "name": "saleId",
          "type": "uint256"
        }
      ],
      "name": "fetchSale",
      "outputs": [
        {
          "components": [
            {
              "internalType": "uint256",
              "name": "saleId",
              "type": "uint256"
            },
            {
              "internalType": "address",
              "name": "licenseProvider",
              "type": "address"
            },
            {
              "internalType": "uint256",
              "name": "tokenId",
              "type": "uint256"
            },
            {
              "internalType": "address",
              "name": "nftContract",
              "type": "address"
            },
            {
              "internalType": "address",
              "name": "refferer",
              "type": "address"
            },
            {
              "internalType": "uint256",
              "name": "soldLicenses",
              "type": "uint256"
            },
            {
              "internalType": "uint256",
              "name": "maxSupply",
              "type": "uint256"
            },
            {
              "internalType": "uint256",
              "name": "start",
              "type": "uint256"
            },
            {
              "internalType": "uint256",
              "name": "duration",
              "type": "uint256"
            },
            {
              "internalType": "uint256",
              "name": "price",
              "type": "uint256"
            },
            {
              "internalType": "bool",
              "name": "active",
              "type": "bool"
            }
          ],
          "internalType": "struct IHeirloomMarketplace.SaleItem",
          "name": "",
          "type": "tuple"
        }
      ],
      "stateMutability": "view",
      "type": "function",
      "constant": true
    },
    {
      "inputs": [
        {
          "internalType": "uint256",
          "name": "licenseId",
          "type": "uint256"
        },
        {
          "internalType": "uint256",
          "name": "amount",
          "type": "uint256"
        }
      ],
      "name": "purchaseLicense",
      "outputs": [],
      "stateMutability": "nonpayable",
      "type": "function"
    }
  ],
  "bytecode": "0x60806040523480156200001157600080fd5b50604051620026ff380380620026ff8339810160408190526200003491620001aa565b600160005562000054600080516020620026df83398151915286620000b7565b6200006f600080516020620026df8339815191528062000140565b600293909355600380546001600160a01b03199081166001600160a01b0394851617909155600480548216948416949094179093556005805490931691161790555062000211565b60008281526001602090815260408083206001600160a01b038516845290915290205460ff166200013c5760008281526001602081815260408084206001600160a01b0386168086529252808420805460ff19169093179092559051339285917f2f8788117e7eff1d82e926ec794901d17c78024a50270940304540a733656f0d9190a45b5050565b6000828152600160208190526040808320909101805490849055905190918391839186917fbd79b86ffe0ab8e8776151514217cd7cacd52c909f66475c3af44e129f0b00ff9190a4505050565b80516001600160a01b0381168114620001a557600080fd5b919050565b600080600080600060a08688031215620001c357600080fd5b620001ce866200018d565b945060208601519350620001e5604087016200018d565b9250620001f5606087016200018d565b915062000205608087016200018d565b90509295509295909350565b6124be80620002216000396000f3fe608060405234801561001057600080fd5b506004361061010b5760003560e01c80636e1c8181116100a2578063ba14b32711610071578063ba14b32714610217578063c5401d6f1461022a578063c703a6cd1461024a578063d547741f1461025f578063e5c542bf1461027257600080fd5b80636e1c8181146101d45780637802bd43146101e957806391d14854146101fc578063a217fddf1461020f57600080fd5b8063248a9ca3116100de578063248a9ca3146101815780632b86ae38146101a55780632f2ff15d146101ae57806336568abe146101c157600080fd5b806301ffc9a71461011057806310e52a3a14610138578063129874aa1461014d578063131dbd0914610160575b600080fd5b61012361011e366004611d7a565b610285565b60405190151581526020015b60405180910390f35b61014b610146366004611da4565b6102bc565b005b61014b61015b366004611da4565b6107eb565b61017361016e366004611dc6565b610bc8565b60405190815260200161012f565b61017361018f366004611dc6565b6000908152600160208190526040909120015490565b61017360025481565b61014b6101bc366004611df7565b610bff565b61014b6101cf366004611df7565b610c2b565b6101dc610ca9565b60405161012f9190611ed0565b61014b6101f7366004611dc6565b610e52565b61012361020a366004611df7565b610f5a565b610173600081565b610173610225366004611f34565b610f85565b61023d610238366004611dc6565b611200565b60405161012f9190611fa6565b6102526112a8565b60405161012f9190611fb5565b61014b61026d366004611df7565b611465565b610173610280366004612047565b61148c565b60006001600160e01b03198216637965db0b60e01b14806102b657506301ffc9a760e01b6001600160e01b03198316145b92915050565b6000828152600b602052604090206006015460ff16156103325760405162461bcd60e51b815260206004820152602660248201527f486569726c6f6f6d204d61726b6574706c6163653a206974656d20697320756e6044820152651b1a5cdd195960d21b60648201526084015b60405180910390fd5b6000828152600b60205260409020600501548111156103a75760405162461bcd60e51b815260206004820152602b60248201527f486569726c6f6f6d204d61726b6574706c6163653a2077726f6e67207075726360448201526a1a185cd948185b5bdd5b9d60aa1b6064820152608401610329565b6000828152600b60205260409020600401546103c4908290612098565b6003546001600160a01b031663dd62ed3e336040516001600160e01b031960e084901b1681526001600160a01b039091166004820152306024820152604401602060405180830381865afa158015610420573d6000803e3d6000fd5b505050506040513d601f19601f8201168201806040525081019061044491906120b7565b10156104625760405162461bcd60e51b8152600401610329906120d0565b6000828152600b60209081526040808320815160e08101835281548152600182015493810184905260028201546001600160a01b03908116828501819052600384015490911660608301526004808401546080840152600584015460a084015260069093015460ff16151560c08301529251632e48829d60e21b815290949363b9220a74926104f5920190815260200190565b600060405180830381865afa158015610512573d6000803e3d6000fd5b505050506040513d6000823e601f3d908101601f1916820160405261053a919081019061218f565b905060008160008151811061055157610551612264565b6020026020010151602001516001600160601b03166127108460800151866105799190612098565b610583919061227a565b61058d9190612098565b90506105c7338460600151838660800151886105a99190612098565b6105b3919061229c565b6003546001600160a01b031692919061177d565b6105e5336004546003546001600160a01b039081169291168461177d565b82604001516001600160a01b031663f242432a84606001516106043390565b8660200151886040518563ffffffff1660e01b815260040161062994939291906122b3565b600060405180830381600087803b15801561064357600080fd5b505af1158015610657573d6000803e3d6000fd5b505060045484516001600160a01b0390911692506397feb9269150849060009061068357610683612264565b6020908102919091010151516040516001600160e01b031960e084901b1681526001600160a01b03909116600482015260248101849052604401600060405180830381600087803b1580156106d757600080fd5b505af11580156106eb573d6000803e3d6000fd5b505050508260200151857f310fa35a97953eb1ad1a08f772c9bacdcc6d6eccc4c4340fa099e9d563f1b80a85606001516107223390565b608088810151604080516001600160a01b0395861681529490931660208501529183018a905260608301919091520160405180910390a3838360a00151610769919061229c565b6000036107e45761077e600980546001019055565b6000858152600b6020908152604091829020600601805460ff19166001908117909155606086015192516001600160a01b0390931683529187917fb2da6119930a2b9a205c7efd44ac791a3f6ad7318286054fb980085a555e020d910160405180910390a35b5050505050565b6000828152600a602081905260409091200154829060ff1615156001146108245760405162461bcd60e51b8152600401610329906122eb565b6000838152600a60205260409020600901546108409083612098565b6003546001600160a01b031663dd62ed3e336040516001600160e01b031960e084901b1681526001600160a01b039091166004820152306024820152604401602060405180830381865afa15801561089c573d6000803e3d6000fd5b505050506040513d601f19601f820116820180604052508101906108c091906120b7565b10156108de5760405162461bcd60e51b8152600401610329906120d0565b6000838152600a60205260409020600681015460059091015461090290849061232e565b11156109765760405162461bcd60e51b815260206004820152603860248201527f486569726c6f6f6d204d61726b6574706c6163653a20616d6f756e742063616e60448201527f6e6f7420737570657263656465206d617820737570706c7900000000000000006064820152608401610329565b6000838152600a60205260408120600501805484929061099790849061232e565b90915550506004546000848152600a6020526040902060018101546009909101546001600160a01b03928316926397feb9269216906109d69086612098565b6040516001600160e01b031960e085901b1681526001600160a01b0390921660048301526024820152604401600060405180830381600087803b158015610a1c57600080fd5b505af1158015610a30573d6000803e3d6000fd5b50505050610a69610a3e3390565b6004546000868152600a60205260409020600901546001600160a01b03909116906105b39086612098565b6000838152600a602052604090819020600381015460018201546002909201549251637921219560e11b81526001600160a01b0391821693849363f242432a93610abc93911691339189906004016122b3565b600060405180830381600087803b158015610ad657600080fd5b505af1158015610aea573d6000803e3d6000fd5b5050506000858152600a60205260409020600201549050847f5a9c9fcfe7b05adffc62900a02abd1b27a29fea7b21da7470fa30a986aa9646333604080516001600160a01b039092168252602082018890520160405180910390a36000848152600a602052604090206008810154600790910154610b68919061232e565b4210610bc2576000848152600a6020819052604090912001805460ff19169055610b96600780546001019055565b60405184907fcb67f20f64495b30f15524c55f90201dd6571d6b5c19dac183d2aeb25315b2dc90600090a25b50505050565b60007ffddb143be89620896ce3745ceb136fd672c98dea954adb8724dcfae9dc08796d610bf581336117d7565b5050600281905590565b60008281526001602081905260409091200154610c1c81336117d7565b610c26838361183b565b505050565b6001600160a01b0381163314610c9b5760405162461bcd60e51b815260206004820152602f60248201527f416363657373436f6e74726f6c3a2063616e206f6e6c792072656e6f756e636560448201526e103937b632b9903337b91039b2b63360891b6064820152608401610329565b610ca582826118a6565b5050565b60606000610cb660075490565b600654610cc3919061229c565b905060008167ffffffffffffffff811115610ce057610ce061211f565b604051908082528060200260200182016040528015610d1957816020015b610d06611d03565b815260200190600190039081610cfe5790505b5090506000805b600654811015610e4957600a6000610d3983600161232e565b81526020810191909152604001600020600a015460ff161515600103610e3757600a6000610d6883600161232e565b815260208082019290925260409081016000208151610160810183528154815260018201546001600160a01b039081169482019490945260028201549281019290925260038101548316606083015260048101549092166080820152600582015460a0820152600682015460c0820152600782015460e082015260088201546101008201526009820154610120820152600a9091015460ff1615156101408201528351849084908110610e1d57610e1d612264565b60200260200101819052508180610e3390612346565b9250505b80610e4181612346565b915050610d20565b50909392505050565b6000818152600a602081905260409091200154819060ff161515600114610e8b5760405162461bcd60e51b8152600401610329906122eb565b6000828152600a602052604090206001015482906001600160a01b03163314610f135760405162461bcd60e51b815260206004820152603460248201527f486569726c6f6f6d204d61726b6574706c6163653a2063616c6c6572206973206044820152733737ba103634b1b2b739b290383937bb34b232b960611b6064820152608401610329565b6000838152600a60208190526040808320909101805460ff191690555184917fcb67f20f64495b30f15524c55f90201dd6571d6b5c19dac183d2aeb25315b2dc91a2505050565b60009182526001602090815260408084206001600160a01b0393909316845291905290205460ff1690565b6000610f95600680546001019055565b6000610fa060065490565b90508860006001600160a01b038216634cd1db78336040516001600160e01b031960e084901b1681526001600160a01b039091166004820152602481018d90526001600160601b03881660448201526064016020604051808303816000875af1158015611011573d6000803e3d6000fd5b505050506040513d601f19601f8201168201806040525081019061103591906120b7565b905060006040518061016001604052808581526020016110523390565b6001600160a01b031681526020018381526020018d6001600160a01b031681526020018b6001600160a01b03168152602001600081526020018c81526020018a815260200189815260200188815260200160011515815250905080600a60008681526020019081526020016000206000820151816000015560208201518160010160006101000a8154816001600160a01b0302191690836001600160a01b031602179055506040820151816002015560608201518160030160006101000a8154816001600160a01b0302191690836001600160a01b0316021790555060808201518160040160006101000a8154816001600160a01b0302191690836001600160a01b0316021790555060a0820151816005015560c0820151816006015560e082015181600701556101008201518160080155610120820151816009015561014082015181600a0160006101000a81548160ff021916908315150217905550905050836111bb3390565b6001600160a01b03167f371910e598072529180b28c60f34fc7445d99bd870936559016ce9e1282df51560405160405180910390a350919a9950505050505050505050565b611208611d03565b506000908152600a60208181526040928390208351610160810185528154815260018201546001600160a01b039081169382019390935260028201549481019490945260038101548216606085015260048101549091166080840152600581015460a0840152600681015460c0840152600781015460e084015260088101546101008401526009810154610120840152015460ff16151561014082015290565b606060006112b560095490565b6008546112c2919061229c565b905060008167ffffffffffffffff8111156112df576112df61211f565b60405190808252806020026020018201604052801561136457816020015b6113516040518060e00160405280600081526020016000815260200160006001600160a01b0316815260200160006001600160a01b0316815260200160008152602001600081526020016000151581525090565b8152602001906001900390816112fd5790505b5090506000805b600854811015610e4957600b600061138483600161232e565b8152602081019190915260400160009081206006015460ff161515900361145357600b60006113b483600161232e565b81526020808201929092526040908101600020815160e0810183528154815260018201549381019390935260028101546001600160a01b03908116928401929092526003810154909116606083015260048101546080830152600581015460a08301526006015460ff16151560c0820152835184908490811061143957611439612264565b6020026020010181905250818061144f90612346565b9250505b8061145d81612346565b91505061136b565b6000828152600160208190526040909120015461148281336117d7565b610c2683836118a6565b600254600354600091906001600160a01b031663dd62ed3e336040516001600160e01b031960e084901b1681526001600160a01b039091166004820152306024820152604401602060405180830381865afa1580156114ef573d6000803e3d6000fd5b505050506040513d601f19601f8201168201806040525081019061151391906120b7565b146115305760405162461bcd60e51b8152600401610329906120d0565b816001600160a01b03861662fdd58e336040516001600160e01b031960e084901b1681526001600160a01b03909116600482015260248101889052604401602060405180830381865afa15801561158b573d6000803e3d6000fd5b505050506040513d601f19601f820116820180604052508101906115af91906120b7565b10156116165760405162461bcd60e51b815260206004820152603060248201527f486569726c6f6f6d204d61726b6574706c6163653a20696e737566666963696560448201526f6e7420276e6674272062616c616e636560801b6064820152608401610329565b611624600880546001019055565b600061162f60085490565b905060006040518060e00160405280838152602001878152602001886001600160a01b031681526020016116603390565b6001600160a01b0390811682526020808301899052604080840189905260006060948501819052878152600b8352819020855181559185015160018301558401516002820180549184166001600160a01b0319928316179055928401516003820180549190931693169290921790556080820151600482015560a0820151600582015560c08201516006909101805491151560ff19909216919091179055905061172761170a3390565b6005546002546003546001600160a01b039081169392169061177d565b85827fa29719e0668112fd314a3f01101222c563cd19f94809a1483b5c39bcfb5d0cdb33604080516001600160a01b039092168252602082018a9052810188905260600160405180910390a35095945050505050565b604080516001600160a01b0385811660248301528416604482015260648082018490528251808303909101815260849091019091526020810180516001600160e01b03166323b872dd60e01b179052610bc290859061190d565b6117e18282610f5a565b610ca5576117f9816001600160a01b031660146119df565b6118048360206119df565b60405160200161181592919061238b565b60408051601f198184030181529082905262461bcd60e51b825261032991600401612400565b6118458282610f5a565b610ca55760008281526001602081815260408084206001600160a01b0386168086529252808420805460ff19169093179092559051339285917f2f8788117e7eff1d82e926ec794901d17c78024a50270940304540a733656f0d9190a45050565b6118b08282610f5a565b15610ca55760008281526001602090815260408083206001600160a01b0385168085529252808320805460ff1916905551339285917ff6391f5c32d9c69d2a47ea670b442974b53935d1edc7fd64eb21e047a839171b9190a45050565b6000611962826040518060400160405280602081526020017f5361666545524332303a206c6f772d6c6576656c2063616c6c206661696c6564815250856001600160a01b0316611b829092919063ffffffff16565b805190915015610c2657808060200190518101906119809190612433565b610c265760405162461bcd60e51b815260206004820152602a60248201527f5361666545524332303a204552433230206f7065726174696f6e20646964206e6044820152691bdd081cdd58d8d9595960b21b6064820152608401610329565b606060006119ee836002612098565b6119f990600261232e565b67ffffffffffffffff811115611a1157611a1161211f565b6040519080825280601f01601f191660200182016040528015611a3b576020820181803683370190505b509050600360fc1b81600081518110611a5657611a56612264565b60200101906001600160f81b031916908160001a905350600f60fb1b81600181518110611a8557611a85612264565b60200101906001600160f81b031916908160001a9053506000611aa9846002612098565b611ab490600161232e565b90505b6001811115611b2c576f181899199a1a9b1b9c1cb0b131b232b360811b85600f1660108110611ae857611ae8612264565b1a60f81b828281518110611afe57611afe612264565b60200101906001600160f81b031916908160001a90535060049490941c93611b2581612455565b9050611ab7565b508315611b7b5760405162461bcd60e51b815260206004820181905260248201527f537472696e67733a20686578206c656e67746820696e73756666696369656e746044820152606401610329565b9392505050565b6060611b918484600085611b99565b949350505050565b606082471015611bfa5760405162461bcd60e51b815260206004820152602660248201527f416464726573733a20696e73756666696369656e742062616c616e636520666f6044820152651c8818d85b1b60d21b6064820152608401610329565b6001600160a01b0385163b611c515760405162461bcd60e51b815260206004820152601d60248201527f416464726573733a2063616c6c20746f206e6f6e2d636f6e74726163740000006044820152606401610329565b600080866001600160a01b03168587604051611c6d919061246c565b60006040518083038185875af1925050503d8060008114611caa576040519150601f19603f3d011682016040523d82523d6000602084013e611caf565b606091505b5091509150611cbf828286611cca565b979650505050505050565b60608315611cd9575081611b7b565b825115611ce95782518084602001fd5b8160405162461bcd60e51b81526004016103299190612400565b6040518061016001604052806000815260200160006001600160a01b031681526020016000815260200160006001600160a01b0316815260200160006001600160a01b0316815260200160008152602001600081526020016000815260200160008152602001600081526020016000151581525090565b600060208284031215611d8c57600080fd5b81356001600160e01b031981168114611b7b57600080fd5b60008060408385031215611db757600080fd5b50508035926020909101359150565b600060208284031215611dd857600080fd5b5035919050565b6001600160a01b0381168114611df457600080fd5b50565b60008060408385031215611e0a57600080fd5b823591506020830135611e1c81611ddf565b809150509250929050565b805182526020810151611e4560208401826001600160a01b03169052565b50604081015160408301526060810151611e6a60608401826001600160a01b03169052565b506080810151611e8560808401826001600160a01b03169052565b5060a081015160a083015260c081015160c083015260e081015160e083015261010080820151818401525061012080820151818401525061014080820151610bc28285018215159052565b6020808252825182820181905260009190848201906040850190845b81811015611f1357611eff838551611e27565b928401926101609290920191600101611eec565b50909695505050505050565b6001600160601b0381168114611df457600080fd5b600080600080600080600060e0888a031215611f4f57600080fd5b8735611f5a81611ddf565b9650602088013595506040880135611f7181611ddf565b9450606088013593506080880135925060a0880135915060c0880135611f9681611f1f565b8091505092959891949750929550565b61016081016102b68284611e27565b602080825282518282018190526000919060409081850190868401855b8281101561203a578151805185528681015187860152858101516001600160a01b0390811687870152606080830151909116908601526080808201519086015260a0808201519086015260c09081015115159085015260e09093019290850190600101611fd2565b5091979650505050505050565b6000806000806080858703121561205d57600080fd5b843561206881611ddf565b966020860135965060408601359560600135945092505050565b634e487b7160e01b600052601160045260246000fd5b60008160001904831182151516156120b2576120b2612082565b500290565b6000602082840312156120c957600080fd5b5051919050565b6020808252602f908201527f486569726c6f6f6d204d61726b6574706c6163653a2048494c4f207061796d6560408201526e1b9d081b9bdd08185c1c1c9bdd9959608a1b606082015260800190565b634e487b7160e01b600052604160045260246000fd5b6040805190810167ffffffffffffffff811182821017156121585761215861211f565b60405290565b604051601f8201601f1916810167ffffffffffffffff811182821017156121875761218761211f565b604052919050565b600060208083850312156121a257600080fd5b825167ffffffffffffffff808211156121ba57600080fd5b818501915085601f8301126121ce57600080fd5b8151818111156121e0576121e061211f565b6121ee848260051b0161215e565b818152848101925060069190911b83018401908782111561220e57600080fd5b928401925b81841015611cbf576040848903121561222c5760008081fd5b612234612135565b845161223f81611ddf565b81528486015161224e81611f1f565b8187015283526040939093019291840191612213565b634e487b7160e01b600052603260045260246000fd5b60008261229757634e487b7160e01b600052601260045260246000fd5b500490565b6000828210156122ae576122ae612082565b500390565b6001600160a01b0394851681529290931660208301526040820152606081019190915260a06080820181905260009082015260c00190565b60208082526023908201527f486569726c6f6f6d204d61726b6574706c6163653a20696e6163746976652073604082015262616c6560e81b606082015260800190565b6000821982111561234157612341612082565b500190565b60006001820161235857612358612082565b5060010190565b60005b8381101561237a578181015183820152602001612362565b83811115610bc25750506000910152565b7f416363657373436f6e74726f6c3a206163636f756e74200000000000000000008152600083516123c381601785016020880161235f565b7001034b99036b4b9b9b4b733903937b6329607d1b60179184019182015283516123f481602884016020880161235f565b01602801949350505050565b602081526000825180602084015261241f81604085016020870161235f565b601f01601f19169190910160400192915050565b60006020828403121561244557600080fd5b81518015158114611b7b57600080fd5b60008161246457612464612082565b506000190190565b6000825161247e81846020870161235f565b919091019291505056fea264697066735822122017a91350d2aa41a2aa9ae2f00ea5ed9efeae35c2b6628d1670d780093ec9102064736f6c634300080d0033fddb143be89620896ce3745ceb136fd672c98dea954adb8724dcfae9dc08796d",
  "immutableReferences": {},
  "source": "// SPDX-License-Identifier: MIT\r\npragma solidity ^0.8.0;\r\npragma abicoder v2;\r\n\r\nimport \"@openzeppelin/contracts/utils/Counters.sol\";\r\nimport \"@openzeppelin/contracts/security/ReentrancyGuard.sol\";\r\nimport \"@openzeppelin/contracts/token/ERC1155/IERC1155.sol\";\r\nimport \"@openzeppelin/contracts/token/ERC1155/ERC1155.sol\";\r\nimport \"@openzeppelin/contracts/utils/Context.sol\";\r\nimport \"@openzeppelin/contracts/access/AccessControl.sol\";\r\nimport \"@openzeppelin/contracts/utils/Address.sol\";\r\nimport \"@openzeppelin/contracts/token/ERC20/utils/SafeERC20.sol\";\r\nimport \"@openzeppelin/contracts/token/ERC20/IERC20.sol\";\r\nimport \"./interfaces/IHeirloomMarketplace.sol\";\r\nimport \"./erc1155/HeirloomLicenseNFT.sol\";\r\nimport \"./utils/Constants.sol\";\r\nimport \"./utils/HeirloomEscrow.sol\";\r\nimport \"./libs/LibPart.sol\";\r\n\r\ncontract HeirloomMarketplace is Context, IHeirloomMarketplace, ReentrancyGuard, AccessControl, Constants {\r\n    using Address for address;\r\n    using SafeERC20 for IERC20;\r\n\r\n    uint256 public LISTING_FEE;\r\n    IERC20 private _hiloToken;\r\n    HeirloomEscrow private _escrow;\r\n    address private _treasury;\r\n\r\n    using Counters for Counters.Counter;\r\n    Counters.Counter private _saleIds;\r\n    Counters.Counter private _closedSales;\r\n    Counters.Counter private _licenseItemIds;\r\n    Counters.Counter private _closedLicenseItems;\r\n    \r\n    mapping(uint256 => SaleItem) private _idToSaleItem;\r\n    mapping(uint256 => LicenseItem) private _idToLicenseItem;\r\n\r\n    modifier onlyActive(uint256 saleId){\r\n        require(_idToSaleItem[saleId].active == true, \"Heirloom Marketplace: inactive sale\");\r\n        _;\r\n    }\r\n    modifier onlyLicenseProvider(uint256 saleId){\r\n        require(_idToSaleItem[saleId].licenseProvider == _msgSender(), \"Heirloom Marketplace: caller is not license provider\"); \r\n        _;\r\n    }\r\n\r\n    constructor(\r\n        address admin, \r\n        uint256 listingFee, \r\n        address hilo, \r\n        address treasury, \r\n        address escrow\r\n        ) {\r\n        _grantRole(ADMIN_ROLE, admin);\r\n        _setRoleAdmin(ADMIN_ROLE, ADMIN_ROLE);\r\n        LISTING_FEE = listingFee;\r\n        _hiloToken = IERC20(hilo); \r\n        _escrow = HeirloomEscrow(escrow);\r\n        _treasury = treasury;\r\n    }\r\n\r\n    function setListingFee(uint256 newListingFee) external onlyRole(ADMIN_ROLE) returns (uint256){\r\n        LISTING_FEE = newListingFee;\r\n        return LISTING_FEE;\r\n    }\r\n\r\n    function createSale(\r\n        address nftContract,\r\n        uint256 maxSupply,\r\n        address refferer,\r\n        uint256 start,\r\n        uint256 duration,\r\n        uint256 price,\r\n        uint96 rbp\r\n    ) public override returns (uint256) {\r\n        _saleIds.increment();\r\n        uint256 saleId = _saleIds.current();\r\n        HeirloomLicenseNFT nftInstance = HeirloomLicenseNFT(nftContract);\r\n        uint256 tokenId = nftInstance.createLicense(_msgSender(), maxSupply, rbp);\r\n        SaleItem memory saleItem = SaleItem({\r\n            saleId: saleId,\r\n            licenseProvider: _msgSender(),\r\n            tokenId: tokenId,\r\n            nftContract: nftContract,\r\n            refferer: refferer,\r\n            soldLicenses: 0,\r\n            maxSupply: maxSupply,\r\n            start: start,\r\n            duration: duration,\r\n            price: price,\r\n            active: true\r\n        });\r\n        _idToSaleItem[saleId] = saleItem;\r\n        emit SaleCreated(_msgSender(), saleId);\r\n        return saleId;\r\n    }\r\n\r\n    function listLicense(\r\n        address nftContract, \r\n        uint256 tokenId, \r\n        uint256 price, \r\n        uint256 amount\r\n        ) public returns (uint256) {\r\n        require(_hiloToken.allowance(_msgSender(), address(this)) == LISTING_FEE, \"Heirloom Marketplace: HILO payment not approved\"); \r\n        require(HeirloomLicenseNFT(nftContract).balanceOf(_msgSender(), tokenId) >= amount, \"Heirloom Marketplace: insufficient 'nft' balance\");\r\n        _licenseItemIds.increment();\r\n        uint256 licenseId = _licenseItemIds.current();\r\n        LicenseItem memory licenseItem = LicenseItem({\r\n            licenseId: licenseId,\r\n            tokenId: tokenId,\r\n            nftContract: nftContract,\r\n            seller: _msgSender(),\r\n            price: price,\r\n            amount: amount,\r\n            sold: false\r\n        });\r\n        _idToLicenseItem[licenseId] = licenseItem;\r\n        _hiloToken.safeTransferFrom(_msgSender(), _treasury, LISTING_FEE);\r\n        emit LicenseListed(licenseId, tokenId, _msgSender(), price, amount);\r\n        return licenseId;\r\n    }\r\n\r\n    function forceCloseSale(uint256 saleId) public onlyActive(saleId) onlyLicenseProvider(saleId) {\r\n        _idToSaleItem[saleId].active = false;\r\n        emit SaleClosed(saleId);\r\n    }\r\n\r\n    function participate(uint256 saleId, uint256 amount) onlyActive(saleId) public {\r\n        require(_hiloToken.allowance(_msgSender(), \r\n        address(this)) >= amount * _idToSaleItem[saleId].price, \r\n        \"Heirloom Marketplace: HILO payment not approved\");\r\n        require(_idToSaleItem[saleId].soldLicenses + amount <= _idToSaleItem[saleId].maxSupply, \"Heirloom Marketplace: amount cannot supercede max supply\");\r\n        _idToSaleItem[saleId].soldLicenses += amount; \r\n        _escrow.depositERC20(_idToSaleItem[saleId].licenseProvider, amount * _idToSaleItem[saleId].price);\r\n        _hiloToken.safeTransferFrom(_msgSender(), address(_escrow), amount * _idToSaleItem[saleId].price);\r\n        IERC1155 nftInstance = IERC1155(_idToSaleItem[saleId].nftContract);\r\n        nftInstance.safeTransferFrom(_idToSaleItem[saleId].licenseProvider, _msgSender(), _idToSaleItem[saleId].tokenId, amount, \"\");\r\n        emit BoughtFromSale(saleId, _idToSaleItem[saleId].tokenId, _msgSender(), amount);\r\n        if(block.timestamp >= _idToSaleItem[saleId].start + _idToSaleItem[saleId].duration){\r\n            _idToSaleItem[saleId].active = false;\r\n            _closedSales.increment(); \r\n            emit SaleClosed(saleId);\r\n        }\r\n    }\r\n\r\n    function fetchListedLicenses() external view returns (LicenseItem [] memory){\r\n        uint256 toFetch = _licenseItemIds.current() - _closedLicenseItems.current();\r\n        LicenseItem [] memory listedItems = new LicenseItem[](toFetch);\r\n        uint count = 0;\r\n        for(uint i = 0; i < _licenseItemIds.current(); i++){\r\n            if(_idToLicenseItem[i+1].sold == false){\r\n                listedItems[count] = _idToLicenseItem[i+1];\r\n                count++; \r\n            }\r\n        }\r\n        return listedItems;\r\n    }\r\n\r\n    function fetchActiveSales() external view returns (SaleItem [] memory) {\r\n        uint256 toFetch = _saleIds.current() - _closedSales.current();\r\n        SaleItem [] memory activeSales = new SaleItem[](toFetch);\r\n        uint count = 0; \r\n        for(uint i = 0; i < _saleIds.current(); i++){\r\n            if(_idToSaleItem[i+1].active == true){\r\n                activeSales[count] = _idToSaleItem[i+1];\r\n                count++; \r\n            }\r\n        }\r\n        return activeSales;\r\n    }\r\n\r\n    function fetchSale(uint256 saleId) public view returns (SaleItem memory){\r\n        return _idToSaleItem[saleId];\r\n    }\r\n\r\n    function purchaseLicense(uint256 licenseId, uint256 amount) public {\r\n        require(_idToLicenseItem[licenseId].sold == false, \"Heirloom Marketplace: item is unlisted\");\r\n        require(amount <= _idToLicenseItem[licenseId].amount, \"Heirloom Marketplace: wrong purchase amount\");\r\n        require(_hiloToken.allowance(_msgSender(), address(this)) >= _idToLicenseItem[licenseId].price * amount, \"Heirloom Marketplace: HILO payment not approved\"); \r\n        LicenseItem memory item = _idToLicenseItem[licenseId];\r\n        LibPart.Part[] memory royalties = HeirloomLicenseNFT(item.nftContract).getHeirloomV1Royalties(item.tokenId);\r\n        uint256 royaltyFee = ((amount * item.price) / 10000) * royalties[0].value;\r\n        _hiloToken.safeTransferFrom(_msgSender(), item.seller, (amount * item.price) - royaltyFee);\r\n        _hiloToken.safeTransferFrom(_msgSender(), address(_escrow), royaltyFee);\r\n        HeirloomLicenseNFT(item.nftContract).safeTransferFrom(item.seller, _msgSender(), item.tokenId, amount, \"\");\r\n        _escrow.depositERC20(royalties[0].account, royaltyFee);\r\n        emit LicenseSold(licenseId, item.tokenId, item.seller, _msgSender(), amount, item.price);\r\n        if(item.amount - amount == 0){\r\n            _closedLicenseItems.increment();\r\n            _idToLicenseItem[licenseId].sold = true;\r\n            emit LicenseItemClosed(licenseId, item.seller, true);\r\n        }\r\n    }\r\n}  ",
  "sourcePath": "D:\\work\\heirloom\\src\\contracts\\contracts\\HeirloomMarketplace.sol",
  "compiler": {
    "name": "solc",
    "version": "0.8.13+commit.abaa5c0e.Emscripten.clang"
  },
  "schemaVersion": "3.4.7",
  "updatedAt": "2022-04-17T09:59:35.176Z",
  "networkType": "ethereum",
  "devdoc": {
    "kind": "dev",
    "methods": {
      "createSale(address,uint256,address,uint256,uint256,uint256,uint96)": {
        "params": {
          "duration": "duration of sale",
          "maxSupply": "token cap of license",
          "nftContract": "nft contract for minting license nft",
          "price": "of the item in the sale",
          "rbp": "royalty basis points, percentage of royalty to be collected by license creator",
          "refferer": "address of the refferer",
          "start": "startDate of the sale"
        }
      },
      "forceCloseSale(uint256)": {
        "params": {
          "saleId": "id of the sale*"
        }
      },
      "getRoleAdmin(bytes32)": {
        "details": "Returns the admin role that controls `role`. See {grantRole} and {revokeRole}. To change a role's admin, use {_setRoleAdmin}."
      },
      "grantRole(bytes32,address)": {
        "details": "Grants `role` to `account`. If `account` had not been already granted `role`, emits a {RoleGranted} event. Requirements: - the caller must have ``role``'s admin role."
      },
      "hasRole(bytes32,address)": {
        "details": "Returns `true` if `account` has been granted `role`."
      },
      "listLicense(address,uint256,uint256,uint256)": {
        "params": {
          "amount": "the amount of nfts to be put up for sale",
          "nftContract": "nft contract address of the license nft",
          "price": "price to sell license for*",
          "tokenId": "the tokenId of the Saas License nft"
        }
      },
      "participate(uint256,uint256)": {
        "details": "erc20 transfer needs to be pre-approved",
        "params": {
          "amount": "number of licenses to buy",
          "saleId": "id of the ongoing sale"
        }
      },
      "purchaseLicense(uint256,uint256)": {
        "params": {
          "amount": "amount to purchase ",
          "licenseId": "id of the license to sell"
        }
      },
      "renounceRole(bytes32,address)": {
        "details": "Revokes `role` from the calling account. Roles are often managed via {grantRole} and {revokeRole}: this function's purpose is to provide a mechanism for accounts to lose their privileges if they are compromised (such as when a trusted device is misplaced). If the calling account had been revoked `role`, emits a {RoleRevoked} event. Requirements: - the caller must be `account`."
      },
      "revokeRole(bytes32,address)": {
        "details": "Revokes `role` from `account`. If `account` had been granted `role`, emits a {RoleRevoked} event. Requirements: - the caller must have ``role``'s admin role."
      },
      "supportsInterface(bytes4)": {
        "details": "See {IERC165-supportsInterface}."
      }
    },
    "version": 1
  },
  "userdoc": {
    "kind": "user",
    "methods": {
      "createSale(address,uint256,address,uint256,uint256,uint256,uint96)": {
        "notice": "creates a saleItem"
      },
      "fetchActiveSales()": {
        "notice": "fetches all of the active nft license sales on the platform*"
      },
      "fetchListedLicenses()": {
        "notice": "fetches all tokenIds listed for sale*"
      },
      "forceCloseSale(uint256)": {
        "notice": "allows creator of a sale to foricibly end a sale"
      },
      "listLicense(address,uint256,uint256,uint256)": {
        "notice": "gives the heirloom operator permission to sell an token amount on behalf of the user"
      },
      "participate(uint256,uint256)": {
        "notice": "allows a user to participate in a license sale"
      },
      "purchaseLicense(uint256,uint256)": {
        "notice": "transfers license item to send on tokenTransfer"
      }
    },
    "version": 1
  }
}